:020000040800F2
:10000000600701207D020008D9210008F91F0008BF
:10001000D5210008C90800086D3000080000000064
:100020000000000000000000000000009D0100082A
:10003000CD08000800000000F9010008D5250008DF
:10004000970200089702000897020008970200082C
:10005000970200089702000897020008970200081C
:10006000970200089702000897020008970200080C
:1000700097020008970200089702000897020008FC
:1000800097020008970200089702000897020008EC
:1000900097020008970200089702000897020008DC
:1000A00097020008952800089702000897020008A8
:1000B00097020008970200089702000897020008BC
:1000C00097020008970200089702000897020008AC
:1000D000970200089702000897020008970200089C
:1000E000970200089702000897020008970200088C
:1000F000970200089702000897020008970200087C
:10010000970200089702000897020008970200086B
:10011000970200089702000897020008970200085B
:10012000970200089702000897020008970200084B
:10013000970200089702000897020008970200083B
:10014000970200089702000897020008970200082B
:10015000970200089702000897020008970200081B
:10016000970200089702000897020008970200080B
:10017000970200089702000897020008000000009C
:100180009702000897020008DFF80CD000F08AFB05
:100190000048004771400008600701202C4B196897
:1001A000086800F05AB880F30988BFF36F8F4FF0EA
:1001B000000080F3118870470000000008480068C4
:1001C000006880F308884FF0000080F3148862B65E
:1001D00061B6BFF34F8FBFF36F8F00DF00BF00BF6B
:1001E00008ED00E0DFF80C00016841F470010160E7
:1001F000704700BF88ED00E0EFF30980BFF36F8F19
:10020000134B1A681EF0100F08BF20ED108A20E96A
:10021000F04F106009B44FF0500080F31188BFF325
:100220004F8FBFF36F8F05F09DF84FF0000080F304
:10023000118809BC1968086800F014B81EF0100F86
:1002400008BF00F014B880F30988BFF36F8F7047C0
:1002500020000020EFF30580704730C8B0E8C04FA1
:10026000FFF7A1BF30C8B0E8C04FFFF7E7BFB0EC61
:10027000088AB0EC08CAFFF7E6BF000006488047CE
:1002800006480047FEE7FEE7FEE7FEE7FEE7FEE77B
:10029000FEE7FEE7FEE7FEE7C12600088901000849
:1002A0002DE9F05F0546002092469B4688460646AB
:1002B000814640241BE0284641464746224600F03E
:1002C00042FA53465A46C01A914110D31146184675
:1002D000224600F029FA2D1A67EB01084F46224604
:1002E0000120002100F020FA17EB00094E41201EEA
:1002F000A4F10104DFDC484631462A46434600F0BB
:1003000000B830BCBDE8C09F40EA01039B0703D0A2
:1003100009E008C9121F08C0042AFAD203E011F844
:10032000013B00F8013B521EF9D27047D2B201E006
:1003300000F8012B491EFBD270470022F6E710B5EA
:1003400013460A4604461946FFF7F0FF204610BD43
:1003500010B5044604E00B7800F8013B03B1491CDA
:10036000521EF8D2204610BD421C10F8011B002975
:10037000FBD1801A70472DE9FE4F804681EA0300C9
:10038000C00F0C46009021F0004123F00045B8EB6F
:100390000200A94105D24046214690461C460B4624
:1003A000024623F00040104347D0270DC7F30A0050
:1003B000C3F30A510290401A019040286BDAC3F34C
:1003C000130040F4801B0098924620B10023D2EB2A
:1003D000030A63EB0B0B01985946C0F140025046EB
:1003E00000F0A2F906460D4650465946019A00F023
:1003F000BAF910EB08006141002487EA115284EA3F
:10040000E7731A4340D0009A62B3019A012A4FEA77
:10041000075215DC001B61EB02014FF0004202EABB
:100420000752CDE90042001C41F5801132462B46AF
:1004300000F0BAF903B000F045B840462146F9E7AC
:10044000001B61EB0201001C41F5801300185B41A9
:100450002018A2F5001747EB030140EAD570B61942
:100460006D4111E06D084FEA360645EAC0754FEA66
:100470000752001B61EB0201001C41F58011490885
:100480004FEA30000019514132462B4603B000F0CC
:100490001CB800F07AB90098012240000023D0EB8C
:1004A000020263EBE073009821464FEAE074B8EB78
:1004B000000061EB0401E9E783F000435BE781F0B2
:1004C000004158E730BCBDE8C08F30BCBDE8C04F2C
:1004D000FFF7DFBF2DE9FE4F81EA030404F000447B
:1004E00021F0004100944FF0000B23F0004350EA4C
:1004F00001045ED052EA03045BD0C3F30A54C1F393
:100500000A552C44A4F2F3340194A0FB0254C1F325
:10051000130141F48011C3F3130343F4801301FB6F
:10052000024400FB034E840A970A44EA815447EAD6
:100530008357A4FB076802958D0A05FB07854FEAE0
:10054000932C04FB0C542705029D4FEA065847EAFA
:100550001637B5EB08056EEB070C870E920E47EACF
:10056000811742EA8312A7FB0201B6EB0B0164EB91
:1005700000042B0D43EA0C335E1844EB1C50DA46A2
:100580005146E7FB0201C5F313044FEA0B3343EA7C
:1005900014534FEA0432019C43EA0603A4F10C040D
:1005A0000294009CCDE900B400F0FEF803B000F026
:1005B00003B800200146F9E730BCBDE8C08F2DE943
:1005C000F04D81EA030404F0004B21F0004514468D
:1005D0004FF0000A23F0004150EA050220D054EA0F
:1005E00001021DD0C5F30A570246C5F31303C1F338
:1005F0001300C1F30A5640F4801543F48013A7EBAF
:100600000608101BD64608F2FD3873EB050002D32E
:1006100008F1010801E092185B41B8F1000F03DA1C
:1006200000200146BDE8F08D00204FF48011064601
:1006300084460EE0171B73EB050705D3121B63EB13
:10064000050306434CEA010C49084FEA30009218B2
:100650005B4150EA0107EDD152EA030012D082EA71
:10066000040083EA0501084305D0101BAB4106D204
:100670000122002306E000224FF0004302E06FF069
:10068000010253101AEB06004CEB085110EB0A0064
:1006900041EB0B01BDE8F04D00F077B80EB5C10F8E
:1006A00080EAE0700844CA07002140F233438DE835
:1006B0000E000A460B4600F077F803B000BD70B597
:1006C000C1F30A5201F000450024C1F3130140F2C6
:1006D000FF3341F480119A4201DA002070BD40F2EC
:1006E00033439A42A2F2334203DC524200F02BF829
:1006F00000E090402C43F1D0404270BD30B50B4635
:10070000014600202022012409E021FA02F59D4241
:1007100005D303FA02F5491B04FA02F52844151E15
:10072000A2F10102F1DC30BD202A04DB203A00FAFC
:1007300002F1002070479140C2F1200320FA03F338
:10074000194390407047202A04DB203A21FA02F036
:100750000021704721FA02F3D040C2F120029140FB
:10076000084319467047202A06DBCB17203A41FA86
:1007700002F043EAE07306E041FA02F3D040C2F12E
:100780002002914008431946704710B5141E73F1BA
:10079000000408DA401C41F1000192185B411A4341
:1007A00001D120F0010010BD2DE9F04D92469B468D
:1007B00011B1B1FA81F202E0B0FA80F22032904633
:1007C000FFF7B2FF04460F4640EA0A0041EA0B0178
:1007D00053465A46084313D0114653EA010019D034
:1007E000C8F140025046FFF7AEFF05460E465046A0
:1007F00059464246FFF798FF084305D0012004E020
:1008000020463946BDE8F08D0020054346EAE076F3
:100810002C4337430A986305E40AA0EB0800002242
:10082000FD0A44EA47540A3002D500200146E9E7B0
:10083000010510196941DDE9084500196941BDE864
:10084000F04DA2E7C1F30A52C1F3130140F2FF33A6
:1008500041F480119A4202DA00200146704740F2CA
:1008600033439A42A2F2334202DC5242FFF76BBF9B
:10087000FFF75ABF30B5041E71F1000404DB4FF0DE
:100880000044404264EB0101141E73F1000405DBD7
:100890001C464FF00043524263EB0403994208BFE9
:1008A000904230BD064C074D06E0E06840F0010381
:1008B00094E8070098471034AC42F6D3FFF768FC81
:1008C000945F0008B45F000800BFFEE77047704700
:1008D0000348406920F48070014948617047000076
:1008E000001000480348406940F4807001494861A5
:1008F000704700000010004878B503460022E5E08C
:10090000012696400D6805EA0604002C7DD04D684E
:10091000022D02D04D68122D13D1D60803F1200507
:1009200055F826005507EE0E0F25B540A84356078B
:10093000F60E0D69B5402843D60803F1200545F8A9
:100940002600186856000325B540A8430D7905F028
:1009500003055600B540284318604D68012D08D0A6
:100960004D68022D05D04D68112D02D04D68122D15
:1009700013D1986856000325B540A8435600CD68AA
:10098000B54028439860586801259540A8430D79E3
:10099000C5F300159540284358600D7905F003050F
:1009A000032D09D1D86A01259540A8430D79C5F3D7
:1009B000C00595402843D862D86856000325B54045
:1009C000A84356008D68B5402843D8604D6805F0AF
:1009D0008055B5F1805F78D100BF3F4D2D6E45F059
:1009E00001053D4E356635462D6E05F00105009535
:1009F00000BF00BF4FEAB635960855F826009507A8
:100A00002E0F0F25B540A84300E05EE0B3F1904FF4
:100A100001D100251EE0314DAB4201D1012519E085
:100A20002F4DAB4201D1022514E02E4DAB4201D136
:100A300003250FE02C4DAB4201D104250AE02B4DDC
:100A4000AB4201D1052505E0294DAB4201D1062578
:100A500000E007259607360FB5402843254D960838
:100A600045F82600244D2868A0434D6805F48035DC
:100A7000B5F5803F00D120431F4D28602D1D28680B
:100A8000A0434D6805F40035B5F5003F00D1204383
:100A9000194D2D1D28602D1D2868A0434D6805F4B3
:100AA0008015B5F5801F00D12043134D083528600F
:100AB0002D1D2868A0434D6805F40015B5F5001FED
:100AC00000D120430C4D0C352860521C0D68D540D8
:100AD000002D7FF415AF78BD0010024000040048DF
:100AE00000080048000C00480010004800140048AE
:100AF0000018004808000140000401400AB181616B
:100B000000E0816270470000014800687047000003
:100B10001800002002480068401C01490860704726
:100B20001800002010B50024032000F0C1F80020B8
:100B300000F008F808B1012401E000F047F8204671
:100B400010BD000070B588B00446002500260022C4
:100B50002146192000F06BF8192000F05BF800BF67
:100B60001648006E40F40060144908660846006E9E
:100B700000F40060019000BF00BF02A903A800F0CC
:100B80001FFC00F057FC05460D48B5FBF0F0461E73
:100B90000C480D49086040F2E7310B48C1604660DF
:100BA00000210161816001F020F820B9064801F0C0
:100BB00037F808B070BD0120FBE7000000100240CC
:100BC00040420F00002C01400801002008B500BF82
:100BD0000F48006E40F001000D4908660846006E9F
:100BE00000F00100009000BF00BF00BF0846806D0C
:100BF00040F0805088650846806D00F0805000907D
:100C000000BF00BF00220F21901E00F010F808BDA9
:100C10000010024000BF00F01F0201219140420974
:100C2000920002F1E022C2F8001100BF70472DE9E6
:100C3000F05F80460D461646002701F0CFFA0746C2
:100C400039462A46334601F00700C0F1070ABAF1D7
:100C5000040F02D94FF0040A01E0C0F1070AD1469F
:100C600000F1040ABAF1070F02D24FF0000A01E0C6
:100C7000A0F1030AD4464FF0010A0AFA09FAAAF1D0
:100C8000010A0AEA020A0AFA0CFA4FF0010B0BFAFF
:100C90000CFBABF1010B0BEA030B4AEA0B042146F8
:100CA000404601F0A3FA00F000B830BCBDE8C09F98
:100CB00000BF00F00702064B19684FF6FF0319400A
:100CC000044B0B4343EA0221014B196000BF7047FC
:100CD0000CED00E00000FA050246B2F5007F2AD1D3
:100CE0001D48006800F4C060B0F5007F32D01A489B
:100CF000006820F4C06040F40070174B186017487B
:100D0000006832235843164BB0FBF3F0411C00E05F
:100D1000491E1148406900F48060B0F5806F01D130
:100D20000029F5D10C48406900F48060B0F5806F6F
:100D300010D1032070470848006800F4C060B0F587
:100D4000806F07D00448006820F4C06040F48060E1
:100D5000014B18600020EDE7007000401C000020EF
:100D600040420F000248006800F4C0607047000075
:100D7000007000402DE9F84304460025A84620886D
:100D800000F40060B0F5006F30D1606E80B1B0F556
:100D9000800F13D0B0F5000F03D0B0F5400F15D180
:100DA00013E0FB48C06840F48030F949C8600FE0A8
:100DB0000021201D01F02EFA054609E0002104F172
:100DC000200001F0EDFA054602E001E0012500BF38
:100DD00000BF55B9EE488830006820F44000616ECD
:100DE0000843EB49C1F8880000E0A846208800F4D9
:100DF0008050B0F5805F30D1A06E80B1B0F1807FBF
:100E000013D0B0F1007F03D0B0F1407F15D113E0D3
:100E1000DF48C06840F48030DD49C8600FE0002141
:100E2000201D01F0F7F9054609E0002104F120003A
:100E300001F0B6FA054602E001E0012500BF00BF5F
:100E400055B9D3488830006820F04070A16E08433F
:100E5000CF49C1F8880000E0A846206800F40030BF
:100E6000B0F5003F77D14FF00009C948806D0121EE
:100E700021EA107078B100BFC548806D40F0805005
:100E8000C34988650846806D00F08050009000BF1F
:100E900000BF4FF00109BF48006840F48070BD49B1
:100EA0000860FFF731FE074606E0FFF72DFEC01B86
:100EB000022801D9032505E0B648006800F48070D7
:100EC0000028F2D000BF85BBB1489030006800F424
:100ED0004076D6B1D4F88400B04216D0AC489030F9
:100EE000006820F44076AA48D0F8900040F48030A2
:100EF000A749C1F890000846D0F8900020F480304F
:100F0000C1F890000846C0F8906006F00100A8B152
:100F1000FFF7FAFD074609E0FFF7F6FDC01B41F2B7
:100F20008831884202D9032507E017E098489030BD
:100F3000006800F002000028EED000BF65B99448B8
:100F40009030006820F44070D4F884100843904931
:100F5000C1F8900003E00CE0A84600E0A846B9F113
:100F6000010F05D18A48806D20F08050884988653E
:100F700000BF207800F0010048B185488830006843
:100F800020F00300A16B08438149C1F88800207854
:100F900000F00200022809D17D488830006820F066
:100FA0000C00E16B08437A49C1F88800207800F012
:100FB0000400042809D176488830006820F0300009
:100FC000216C08437249C1F88800207800F00800BD
:100FD000082809D16E488830006820F0C000616C94
:100FE00008436B49C1F88800207800F010001028F1
:100FF00009D167488830006820F44070A16C08432C
:101000006349C1F88800207800F02000202809D129
:101010005F488830006820F44060E16C08435C4918
:10102000C1F88800208800F40070B0F5007F09D175
:1010300057488830006820F44020E16D0843544947
:10104000C1F88800208800F48060B0F5806F09D175
:101050004F488830006820F44010216E08434C4906
:10106000C1F88800207800F04000402809D14848A5
:101070008830006820F44050216D08434449C1F88D
:101080008800207800F08000802809D1404888300E
:10109000006820F44040616D08433D49C1F8880074
:1010A000208800F48070B0F5807F09D138488830FE
:1010B000006820F44030A16D08433549C1F888002C
:1010C000208800F40050B0F5005F1FD13048883010
:1010D000006820F04060E16E08432D4988310860C7
:1010E000E06EB0F1006F06D12948C06840F480106E
:1010F0002749C8600AE0E06EB0F1806F06D1012197
:10110000201D01F087F8054605B1A846206800F4C7
:101110000020B0F5002F1FD11D488830006820F056
:101120004060216F08431A4988310860206FB0F190
:10113000006F06D11648C06840F480101449C8609A
:101140000AE0206FB0F1806F06D10121201D01F06F
:1011500061F8054605B1A846206800F48020B0F586
:10116000802F24D10A488830006820F04060616FE9
:101170000843074988310860606FB0F1006F0BD1F8
:101180000348C06840F480100149C8600FE00000C7
:101190000010024000700040606FB0F1806F06D117
:1011A0000121201D01F036F8054605B1A84620882A
:1011B00000F48040B0F5804F1FD12248006820F035
:1011C0004050A16F08431F490860A06FB0F1805FD5
:1011D00007D10221201D01F01DF805466DB1A8467A
:1011E0000BE0A06FB0F1005F07D1022104F12000F5
:1011F00001F0D6F8054605B1A846208800F4004065
:10120000B0F5004F09D10F48006820F08040E16F31
:1012100008430C498839C1F88800206800F4803000
:10122000B0F5803F0AD10748006820F00040D4F8AC
:101230008010084303498839C1F888004046BDE85A
:10124000F8830000881002402DE9F04104460D4665
:1012500014B90120BDE8F0815548006800F007008E
:10126000A8420ED25248006820F007002843504997
:1012700008600846006800F00700A84201D001207D
:10128000E8E7207800F00100002840D060680328DB
:1012900006D14848006800F00070D8B90120D9E7AD
:1012A0006068022806D14348006800F4003088B91D
:1012B0000120CFE7606830B93E48006800F00200C6
:1012C00040B90120C6E73B48006800F4806008B9D7
:1012D0000120BFE73748806820F0030061680843B9
:1012E00034498860FFF710FC064608E0FFF70CFC65
:1012F000801B41F28831884201D90320AAE72D489A
:10130000806800F00C006168B0EB810FEED12078AE
:1013100000F00200022807D12648806820F0F00083
:10132000A1680843234988602148006800F007004D
:10133000A8420ED91E48006820F0070028431C4927
:1013400008600846006800F00700A84201D00120AC
:1013500080E7207800F00400042807D11548806851
:1013600020F4E060E168084312498860207800F0CA
:101370000800082808D10F48806820F460502169CF
:1013800040EAC1000B49886000F066F809498968A5
:10139000C1F30311084A515C01F01F01C84007491D
:1013A00008600020FFF7CEFB0746384652E70000F2
:1013B0000020024000100240405F00081C00002096
:1013C0000F2202600D4A926802F0030242600B4A4B
:1013D000926802F0F0028260084A926802F4E062C9
:1013E000C260064A926802F46052D2080261044A5E
:1013F000126802F007020A60704700000010024005
:101400000020024001480068704700001C000020D6
:1014100000B5FFF7F7FF05498968C1F30221044AC7
:10142000515C01F01F01C84000BD000000100240E7
:10143000505F000800B5FFF7E5FF05498968C1F373
:10144000C221044A515C01F01F01C84000BD0000E8
:1014500000100240505F00082DE9F04100240020F8
:10146000DFF800C1DCF808C00CF00C01DFF8F4C0B4
:10147000DCF80CC00CF0030719B10C291ED1012FA8
:101480001CD1DFF8E0C0DCF800C00CF0080CBCF1A7
:10149000000F06D1DFF8CCC0DCF894C0CCF30324F5
:1014A00005E0DFF8C0C0DCF800C0CCF30314DFF8BF
:1014B000B8C05CF8244041B9204606E0042901D1B7
:1014C0002A4802E0082900D129480C2947D1DFF831
:1014D00094C0DCF80CC00CF00305DFF888C0DCF821
:1014E0000CC0CCF3021C0CF10103012D1FD0022D06
:1014F00002D0032D1AD10CE0DFF870C0BCFBF3FC66
:10150000DFF86080D8F80C80C8F306280CFB08F2DE
:1015100018E0DFF85CC0BCFBF3FCDFF84880D8F8CB
:101520000C80C8F306280CFB08F20BE000BFB4FBEC
:10153000F3FCDFF83080D8F80C80C8F306280CFBE9
:1015400008F200BF00BFDFF81CC0DCF80CC0CCF311
:10155000416C0CF1010C4FEA4C06B2FBF6F0BDE811
:10156000F081000000100240585F00080024F400E1
:1015700000127A002DE9F843044614B90120BDE8B1
:10158000F883F848806800F00C06F648C06800F060
:101590000307207800F01000102875D11EB10C2E22
:1015A00074D1012F72D1EF48006800F0020018B129
:1015B000A06908B90120E2E7EA48216A006800F062
:1015C000080020B1E748006800F0F00005E0E548B9
:1015D0009430006800F47060000981421FD9206ACD
:1015E00000F090FF08B10120C9E700BFDD480068A6
:1015F00040F00800DB4908600846006820F0F00071
:10160000216A0843D749086000BF0846406820F4B3
:101610007F40E16940EA0120D24948601EE000BFF6
:10162000D048006840F00800CE49086008460068CD
:1016300020F0F000216A0843CA49086000BF08464C
:10164000406820F47F40E16940EA0120C5494860D4
:10165000206A00F057FF08B1012090E7FFF7FCFE79
:10166000C0498968C1F30311BF4A515C01F01F01F1
:10167000C840BE4908600020FFF764FA8046B8F110
:10168000000F4ED040467AE74BE0FFE7A06980B3F9
:10169000B448006840F00100B2490860FFF734FA2E
:1016A000054606E0FFF730FA401B022801D9032067
:1016B00065E7AC48006800F002000028F2D000BFE7
:1016C000A848006840F00800A6490860084600687D
:1016D00020F0F000216A0843A249086000BF0846D4
:1016E000406820F47F40E16940EA01209D4948605C
:1016F00017E0FFE79B48006820F001009949086067
:10170000FFF702FA054606E0FFF7FEF9401B022844
:1017100001D9032033E79348006800F00200002855
:10172000F2D1207800F0010000285CD0082E03D010
:101730000C2E0AD1032F08D18A48006800F400302B
:1017400088B3606878BB012019E700BF6068B0F516
:10175000803F06D18348006840F4803081490860AA
:101760001AE06068B0F5A02F0BD17E48006840F405
:1017700080207C4908600846006840F4803008609A
:101780000AE07848006820F480307649086008460E
:10179000006820F48020086000BF606890B1FFF707
:1017A000B3F9054607E01EE0FFF7AEF9401B6428D9
:1017B00001D90320E3E66B48006800F400300028FC
:1017C000F2D010E0FFF7A0F9054606E0FFF79CF91C
:1017D000401B642801D90320D1E66248006800F468
:1017E00000300028F2D1207800F00200022852D107
:1017F000042E03D00C2E14D1022F12D159480068A8
:1018000000F4806018B1E06808B90120B7E65548D7
:10181000406820F0F850217C40EA0160514948605E
:1018200039E0E06800B34F48006840F480704D49EB
:101830000860FFF769F9054606E0FFF765F9401B08
:10184000022801D903209AE64648006800F4806027
:101850000028F2D04348406820F0F850217C40EA4C
:1018600001604049486016E03E48006820F48070FE
:101870003C490860FFF748F9054606E0FFF744F9E0
:10188000401B022801D9032079E63648006800F49D
:1018900080600028F2D1207800F00800082836D1B6
:1018A0006069D0B12F489430006840F001002D49A4
:1018B000C1F89400FFF728F9054606E0FFF724F980
:1018C000401B022801D9032059E6264894300068BD
:1018D00000F002000028F1D019E02248943000689E
:1018E00020F001001F49C1F89400FFF70DF90546EB
:1018F00006E0FFF709F9401B022801D903203EE664
:1019000018489430006800F002000028F1D12078D7
:1019100000F00400042870D14FF000091148806DD8
:1019200000F0805078B900BF0E48806D40F08050C4
:101930000C4988650846806D00F08050009000BF1B
:1019400000BF4FF001090A48006800F48070F0B948
:101950000748006840F4807005490860FFF7D4F834
:1019600005460EE000100240405F00081C00002009
:1019700000700040FFF7C8F8401B022801D903207F
:10198000FDE57C48006800F480700028F2D000BFBC
:10199000A068012808D17848006840F00100764925
:1019A0009039C1F8900021E0A06805280FD1724855
:1019B000006840F0040070499039C1F89000084672
:1019C000D0F8900040F00100C1F890000EE06A48A5
:1019D000006820F0010068499039C1F8900008467D
:1019E000D0F8900020F00400C1F8900000BFA0687B
:1019F000A0B1FFF789F8054609E02EE0FFF784F86B
:101A0000401B41F28831884201D90320B7E55A488A
:101A1000006800F002000028F0D012E0FFF774F830
:101A2000054608E0FFF770F8401B41F28831884214
:101A300001D90320A3E55048006800F00200002807
:101A4000F0D1B9F1010F07D14B489038806D20F0EB
:101A5000805049499039886500BFA06AF0B30C2EC8
:101A600074D0A06A022853D143489038006820F00F
:101A70008070414990390860FFF746F8054606E056
:101A8000FFF742F8401B022801D9032077E53A48C6
:101A90009038006800F000700028F1D1206B401EE3
:101AA0000101606B41EA0021A06B000941EA40405E
:101AB000E16A0843A18F0122C2EB510140EA415182
:101AC0004020005DC2EB500041EA40602A49903955
:101AD000C8600846006840F0807000E048E0086098
:101AE0000846C06840F08070C860FFF70DF80546F2
:101AF00006E0FFF709F8401B022801D903203EE564
:101B00001D489038006800F000700028F1D02FE0E8
:101B100019489038006820F08070174990390860A3
:101B20000846006800F0205020B90846C06820F040
:101B30000300C86010489038C068104908400E493A
:101B40009039C860FEF7E0FF054607E00EE0FEF7BB
:101B5000DBFF401B022801D9032010E5064890381E
:101B6000006800F000700028F1D101E0012006E5D6
:101B7000002004E50070004090100240FFFFEEFEE0
:101B800010B504460CB9012010BD607920B90020C1
:101B90002071204600F00EF8022060712068006875
:101BA00040F0040021680860012060710020A060FE
:101BB00000BFE9E708B5094A016891420DD100BFAD
:101BC0000749C96C41F48021054AD1641146C96CAA
:101BD00001F48021009100BF00BF08BD000806503D
:101BE0000010024070477047704710B504460CB9AA
:101BF000012010BD94F83D0028B9002084F83C0075
:101C0000204600F00CF8022084F83D00211D2068D9
:101C100000F048FE012084F83D000020E9E770470D
:101C200001460868C06840F001000A68D060086892
:101C300080680B4A1040062805D00868806810406C
:101C4000B0F5803F01D1012000E0002028B90868EC
:101C5000006840F001000A68106000207047000032
:101C600007000100704710B5044620680069C0F302
:101C70004000D8B12068C068C0F34000B0B16FF038
:101C8000020021680861012020772068806900F047
:101C9000030018B12046FFF7E5FF05E0204600F0FD
:101CA000BEF8204600F0BCF80020207720680069CC
:101CB000C0F38000D8B12068C068C0F38000B0B124
:101CC0006FF0040021680861022020772068806995
:101CD00000F4407018B12046FFF7C4FF05E020462D
:101CE00000F09DF8204600F09BF800202077206847
:101CF0000069C0F3C000D8B12068C068C0F3C0005C
:101D0000B0B16FF0080021680861042020772068D6
:101D1000C06900F0030018B12046FFF7A3FF05E0FB
:101D2000204600F07CF8204600F07AF8002020776A
:101D300020680069C0F30010D8B12068C068C0F303
:101D40000010B0B16FF01000216808610820207702
:101D50002068C06900F4407018B12046FFF782FF88
:101D600005E0204600F05BF8204600F059F800201E
:101D700020772068006900F0010058B12068C06831
:101D800000F0010030B16FF00100216808612046C9
:101D900000F048F820680069C0F3C01058B120680E
:101DA000C068C0F3C01030B16FF0800021680861D6
:101DB0002046FFF718FF20680069C0F3002058B1E3
:101DC0002068C068C0F3C01030B16FF48070216823
:101DD00008612046FFF706FF20680069C0F3801005
:101DE00058B12068C068C0F3801030B16FF0400077
:101DF00021680861204600F021F820680069C0F3DE
:101E0000401058B12068C068C0F3401030B16FF086
:101E10002000216808612046FFF7E6FE10BD7047EC
:101E20007047000010B5044603492068884201D17C
:101E3000FEF770FE10BD0000002C0140704710B589
:101E400004460CB9012010BDA06900B100E000BF3C
:101E500094F8710028B9002084F87000204600F042
:101E60002BF8242084F871002068006820F001001D
:101E700021680860204600F031FE012800D1E2E729
:101E8000606A10B1204600F073FD2068406820F4BD
:101E90009040216848602068806820F02A0021680E
:101EA00088602068006840F00100216808602046D2
:101EB00000F0DAFDC7E7000010B586B00446142133
:101EC00001A8FEF73AFA17492068884228D100BFD6
:101ED0001548806D40F40030134988650846806DD0
:101EE00000F40030009000BF00BF00BF0846C06C87
:101EF00040F00800C8640846C06C00F0080000907C
:101F000000BF00BF602001900220029000200390DB
:101F1000032004900720059001A90448FEF7ECFC7B
:101F200006B010BD0044004000100240000C004804
:101F30002DE9F84304460D4616461F464FF00009AA
:101F400094F87100202855D105B116B90120BDE8DB
:101F5000F88300BF94F87000012801D10220F6E751
:101F6000012084F8700000BF00206067212084F801
:101F70007100FEF7C9FD8146A4F85060A4F85260D4
:101F800021E04B46002280212046009700F0EFFF21
:101F900008B10320DBE7A068B0F5805F0AD12069B3
:101FA00040B9A846B8F80000C0F3080021680885C9
:101FB000AD1C03E015F8010B21680885B4F8520048
:101FC000401EA4F85200B4F852000028D9D14B4664
:101FD000002240212046009700F0C9FF08B10320ED
:101FE000B5E7202084F8710000BF002084F870005D
:101FF00000BFACE70220AAE700BFFEE72348C06CA1
:1020000040F012002149C8646FF030002049086098
:102010000846006840F0100008601D48083000685D
:1020200020F030001A49083108600846006840F086
:1020300030000860081F006820F00400091F0860D5
:1020400013480C30006820F0300011490C31086052
:102050006FF440300F4908600846006840F4803053
:1020600008600846806820F4403088600846806830
:1020700040F4403088600846406820F48070486032
:102080000846C06820F44030C86070470010024025
:10209000000400480010004800B585B0142206492D
:1020A0006846FEF731F90021684602F01DF9034940
:1020B000086005B000BD00002C5F00080000002093
:1020C00000B587B0142102A8FEF737F900BF2648F3
:1020D000C06C40F002002449C8640846C06C00F09F
:1020E0000200019000BF00BF00BF0846C06C40F076
:1020F0001000C8640846C06C00F01000019000BFDA
:1021000000BF00BF0846C06C40F00800C864084625
:10211000C06C00F00800019000BF00BF0022042145
:102120001248FEF7EBFC00224FF480711048FEF7D6
:10213000E5FC04200290012003900020049003207D
:10214000059002A90948FEF7D7FB4FF48070029072
:1021500001200390002004900320059002A9044868
:10216000FEF7CAFB07B000BD0010024000040048A3
:102170000010004810B50548054908600846FFF7FB
:10218000FFFC08B1FEF7A3FB10BD000000080650DD
:102190008000002010B50D480D4908604FF416501E
:1021A000486000210A488160C16001610C214161E1
:1021B00000218161C1610162002005494862084631
:1021C000FFF73DFE08B1FEF782FB10BD0044004062
:1021D0009000002000BFFEE7704700000248006842
:1021E000C0F30220704700000CED00E010B500289D
:1021F00007DA0A07140E054A00F00F031B1FD45418
:1022000003E00A07130E024A135410BD18ED00E054
:1022100000E400E02DE9F04104460F4600255C484B
:10222000C06800F0030090B15948C06800F0030096
:102230002168884209D1206838B15548C068C0F388
:102240000210401C6168884233D0012531E02068CB
:10225000012804D0022809D003281AD10DE04C48E7
:10226000006800F0020000B9012514E04848006849
:1022700000F4806000B901250DE04548006800F4D5
:10228000003028B94248006800F4802000B90125D8
:1022900001E0012500BF00BF5DB9D4E90010401E78
:1022A00041EA00103A49C96821F0730108433849EE
:1022B000C860002D68D13648006820F0806034493D
:1022C0000860FEF721FC064606E0FEF71DFC801BB9
:1022D000022801D9032505E02D48006800F00060C0
:1022E0000028F2D100BFCDBB6FB9A0680002E16841
:1022F000090940EA414026490969264A1140084334
:102300002349086120E0012F0FD1A0680002218A33
:102310000122C2EB510140EA41501D4909691E4AA0
:10232000114008431A4908610EE0A0680002217DAF
:102330000122C2EB510140EA416015490969174A7F
:1023400011400843124908611148006840F080605C
:102350000F490860FEF7D8FB064607E014E0FEF7D9
:10236000D3FB801B022801D9032505E0084800683B
:1023700000F000600028F2D000BF2DB904480069C9
:10238000A1690843024908612846BDE8F0810000C0
:1023900000100240FF80FDFFFF809FFFFF80FFF9DC
:1023A0002DE9F04104460F4600255348C06800F06F
:1023B000030090B15048C06800F0030021688842D3
:1023C00009D1206838B14C48C068C0F30210401CE5
:1023D0006168884233D0012531E02068012804D0AB
:1023E000022809D003281AD10DE04348006800F004
:1023F000020000B9012514E03F48006800F4806045
:1024000000B901250DE03C48006800F4003028B90F
:102410003948006800F4802000B9012501E0012559
:1024200000BF00BF5DB9D4E90010401E41EA0010B2
:102430003149C96821F0730108432F49C860002D54
:1024400056D12D48006820F080502B490860FEF7D7
:102450005BFB064606E0FEF757FB801B022801D90E
:10246000032505E02448006800F000500028F2D160
:1024700000BF75BB6FB9A0680002E168090940EAB6
:1024800041401D4949691D4A114008431A494861A4
:102490000EE0A0680002217C0122C2EB510140EA5B
:1024A000416015494969164A11400843124948617B
:1024B0001148006840F080500F490860FEF724FB87
:1024C000064607E0FEF720FB801B022802D9032501
:1024D00006E00DE00848006800F000500028F1D048
:1024E00000BF2DB904484069616908430249486149
:1024F0002846BDE8F081000000100240FF80FDFF8B
:10250000FF80FFF9F8B5044600262348806D00F0EF
:10251000805018B1FEF726FC054616E000BF1E48A5
:10252000806D40F080501C4988650846806D00F041
:102530008050009000BF00BFFEF714FC054616480F
:10254000806D20F0805014498865B5F5007F07D173
:10255000802C10D9A02C01D902260CE001260AE01B
:10256000802C01D9032606E0802C01D1022602E04E
:10257000702C00D101260948006820F00700304384
:10258000064908600846006800F00700B04201D024
:102590000120F8BD0020FCE70010024000200240AE
:1025A0000348006820F004000149086070470000FB
:1025B000140400480348006840F004000149086022
:1025C000704700001404004800BF012001F07BFEAA
:1025D000FBE7000010B500BF502080F31188BFF367
:1025E0004F8FBFF36F8F00BF03F0BEFA18B14FF0EB
:1025F00080500449086000BF002080F3118800BFAC
:1026000010BD000004ED00E000B5B9B0442128A8D9
:10261000FDF793FE142123A8FDF78FFE882101A862
:10262000FDF78BFE1020289001202E9000202F9087
:102630006020309002203290012128A8C1620163FD
:1026400028214163072181630221C1630164FEF7F0
:1026500091FF08B1FEF73BF90F202390032024904F
:102660000020259026902790042123A8FEF7ECFD5A
:1026700008B1FEF72CF911480190002010904FF09E
:1026800080601E900120029001210391102104918D
:10269000072105910221069107910105089101A8E2
:1026A000FEF768FB08B1FEF712F94FF40070FEF771
:1026B00013FB08B1FEF70BF939B000BD02000400AE
:1026C0001048006840F470000E4908600E48006829
:1026D00040F001000C49086000208860084600684E
:1026E0000A490840084908608814C860084600681C
:1026F00020F48020086000208861C80301498039E7
:102700000860704788ED00E000100240FFFFF6EA25
:102710005E49096821F007015C4A116011460968A9
:1027200041F0020111605A49096841F48071584A28
:10273000116000BF5649096801F480610029F9D091
:1027400010205349496821F0F851514A516011460F
:10275000496841EA006151601146096821F08071C1
:10276000116000BF4A49096801F00071B1F1007FB2
:10277000F8D04749C96821F00301454AD1601146A4
:10278000C96841F00201D1601146C96821F4FE41D7
:1027900041F4A051D1601146C96821F0700141F0A7
:1027A0001001D1601146C96821F0C061D1601146A5
:1027B000C96841F08071D1601146096841F08071AB
:1027C000116000BF3249096801F000710029F9D099
:1027D0002F49896821F003012D4A916011468968CB
:1027E00041F00301916000BF2949896801F00C01A3
:1027F0000C29F9D12649896821F0F001244A916019
:102800001146896821F4E06191601146896821F4DC
:10281000605191601146096821F08061116000BF2C
:102820001B49096801F08061B1F1806FF8D0184947
:10283000096921F4FE41164A11611146096941F402
:10284000C05111611146096941F40031116111460D
:10285000096941F4803111611146096841F08061D4
:10286000116000BF0A49096801F080610029F9D0B0
:1028700007498831096821F44001054AC2F88810E7
:102880001146096E41F400111166704700200240A4
:102890000010024010B50248FFF7E5F910BD000036
:1028A0000801002010B50268294B98420ED0B0F103
:1028B000804F0BD0274B984208D0274B984205D029
:1028C000264B984202D0264B984203D122F0700248
:1028D0004B681A431E4B984217D0B0F1804F14D06A
:1028E0001C4B984211D01C4B98420ED01B4B984267
:1028F0000BD01B4B984208D01A4B984205D01A4B6C
:10290000984202D0194B984203D122F44072CB680E
:102910001A4322F080034C6943EA040202608B6888
:10292000C3620B6883620A4B98420BD00C4B9842EF
:1029300008D00C4B984205D00B4B984202D00B4B61
:10294000984201D10B6903630123436110BD00006C
:10295000002C01400004004000080040000C004032
:102960000034014000400140004401400048014063
:1029700090F8241001F0010139B10168496821F48F
:102980000031826A11430268516090F8241001F00E
:102990000201022907D10168496821F48031C26A25
:1029A00011430268516090F8241001F004010429D9
:1029B00007D10168496821F48021026B1143026844
:1029C000516090F8241001F00801082907D101682E
:1029D000496821F40041426B11430268516090F84C
:1029E000241001F01001102907D10168896821F431
:1029F0008051826B11430268916090F8241001F0BD
:102A00002001202907D10168896821F40051C26B97
:102A100011430268916090F8241001F040014029B0
:102A200013D10168496821F48011026C11430268D6
:102A30005160016CB1F5801F07D10168496821F42C
:102A4000C001426C11430268516090F8241001F0FB
:102A50008001802907D10168496821F40021826C36
:102A6000114302685160704738B5044600250020C4
:102A70006067FEF749F805462068006800F0080026
:102A800008280CD16FF07E402B4600224FF4001135
:102A90000090204600F06BFA08B1032038BD206892
:102AA000006800F0040004280CD16FF07E402B4633
:102AB00000224FF480010090204600F058FA08B13F
:102AC0000320EBE7202084F8710084F8720000BF37
:102AD000002084F8700000BF00BFDFE72DE9F84F49
:102AE00004464FF0000910264FF0000B002500208F
:102AF00000908246F7492068884200D100E000BF7C
:102B00002169A068084361690843E16940EA010955
:102B100020680068F049084040EA09002168086020
:102B20002068406820F44050E1680843216848600C
:102B3000D4F81890E7492068884202D0206A40EA19
:102B400009092068806820F4306040EA09002168A3
:102B5000886000BFE1492068884216D1E0480068DB
:102B600000F0030030B1012808D0022804D0032867
:102B700008D105E0012607E0022605E0042603E06F
:102B8000082601E0102600BF8CE0D6492068884264
:102B900016D1D348006800F00C0030B1042808D0EA
:102BA000082804D00C2808D105E0002607E00226FA
:102BB00005E0042603E0082601E0102600BF71E0CE
:102BC000C9492068884216D1C548006800F0300025
:102BD00030B1102808D0202804D0302808D105E0D2
:102BE000002607E0022605E0042603E0082601E0AF
:102BF000102600BF56E0BD492068884216D1B8486B
:102C0000006800F0C00030B1402808D0802804D00F
:102C1000C02808D105E0002607E0022605E00426CA
:102C200003E0082601E0102600BF3BE0B049206821
:102C3000884219D1AA48006800F4407048B1B0F544
:102C4000807F0AD0B0F5007F05D0B0F5407F08D175
:102C500005E0002607E0022605E0042603E008263A
:102C600001E0102600BF1DE09A492068884219D172
:102C70009B48006800F4406048B1B0F5806F0AD00E
:102C8000B0F5006F05D0B0F5406F08D105E0002623
:102C900007E0022605E0042603E0082601E01026EE
:102CA00000BF00BF00BF8B492068884272D1042E4C
:102CB00010D003DC3EB1022E13D108E0082E0DD057
:102CC000102E0ED10EE0FEF7A3FB82460DE0DFF8DA
:102CD00024A20AE0FEF7C0FB824606E04FF4004A59
:102CE00003E000BF0120009000BF00BFBAF1000F59
:102CF0000AD0606800EB4000504503D860680003CC
:102D0000504502D20120009025E1042E2ED003DC94
:102D10003EB1022E51D118E0082E3CD0102E4CD1DD
:102D20004CE0FEF775FB4FF48071A0FB0131606849
:102D300040081F1841F10001D4F804C06246002386
:102D40003846FDF7ADFA05463BE0D4F804C04FEA3B
:102D50005C000021684BC71841EB010862460B4636
:102D600038464146FDF79CFA05462AE0FEF774FB1B
:102D70004FF48071A0FB0130616849085F1840F191
:102D80000001D4F804C0624600233846FDF788FAF3
:102D9000054616E022E0D4F804C04FEA5C000021AA
:102DA0004FF40003C71841EB010862460B46384652
:102DB0004146FDF775FA054603E000BF012000908B
:102DC00000BF00BFB5F5407F05D3B5F5801F02D227
:102DD0002068C560BFE001200090BCE0E069B0F56C
:102DE000004F57D1042E28D005DC4EB1012E11D052
:102DF000022E36D118E0082E29D0102E31D131E024
:102E0000FEF706FB4000616800EB5100B0FBF1F0FB
:102E100085B22AE0FEF70EFB4000616800EB51002E
:102E2000B0FBF1F085B220E03449606801EB50005E
:102E30006168B0FBF1F085B217E0FEF70DFB4000D2
:102E4000616800EB5100B0FBF1F085B20DE04FF48A
:102E50008031606801EB50006168B0FBF1F085B231
:102E600003E000BF0120009000BF00BF102D0ED373
:102E7000B5F5803F0BD24FF6F07005EA000BC5F3B5
:102E800042004BEA000B2068C0F80CB063E0012060
:102E9000009060E0042E3CD005DC4EB1012E10D035
:102EA000022E49D12CE0082E3CD0102E44D144E013
:102EB000FEF7AEFA616800EB5100B0FBF1F085B2AD
:102EC0003EE0FEF7B7FA616800EB5100B0FBF1F0AD
:102ED00085B235E000800040F369FFEF0038014023
:102EE000881002400044004000480040004C004070
:102EF000005000400024F400000024F40048E801E1
:102F00001849606801EB50006168B0FBF1F085B2D0
:102F100016E0FEF7A1FA616800EB5100B0FBF1F09A
:102F200085B20DE04FF40041606801EB500061682C
:102F3000B0FBF1F085B203E000BF0120009000BFBC
:102F400000BF102D05D3B5F5803F02D22068C560C3
:102F500001E001200090002020666066009800F0EB
:102F600003B800000024F40018BCBDE8E08F2DE990
:102F7000F04104460D4617469846069E21E0701C17
:102F8000F8B12EB1FDF7C0FDA0EB0800B04218D992
:102F90002068006820F4D07021680860206880688C
:102FA00020F0010021688860202084F8710084F8F6
:102FB000720000BF002084F8700000BF0320BDE84D
:102FC000F0812068C0692840A84201D1012000E0BA
:102FD0000020B842D3D00020F1E764224243072307
:102FE000B2FBF3F100BF4A1E111EFCD17047000076
:102FF0000FB410B59EB021A801906E2102A8019BCC
:10300000209A00F061F80020019002A8FDF7ACF9C9
:1030100084B26423224602A90348FEF789FF1EB04A
:1030200010BC5DF814FB000090000020F0B50446D1
:103030000E46174600250CE000BFE06900F0800056
:103040000028FAD0705D20854FF49670FFF7C5FF19
:103050006D1CBD42F0D300BFE06900F040000028C5
:10306000FAD0E06920F04000E061F0BD00BFFEE76B
:103070000FB41CB50246002007AC00290BD0491E36
:10308000CDE90021054B6A462146069800F008F973
:10309000009A002111701CBC5DF814FBD5390008A2
:1030A0000FB4084B10B504A902AA039800F0F8F871
:1030B000044602A9002000F098FC204610BC5DF8F0
:1030C00014FB0000EB3900087CB5044600201D46C7
:1030D000164600290BD0491ECDE90041044B6A4633
:1030E0002946304600F0DCF8009A002111707CBDC2
:1030F000D539000802E008C8121F08C1002AFAD119
:1031000070477047002001E001C1121F002AFBD167
:10311000704700002DE9FF5F82B00021DDE9043037
:10312000020DDDF840B0034318D044F61050A2F26F
:10313000FF3242431514119801281FD0A5EB0B0054
:10314000401C5FEA000A4FF000064E4FDFF838914E
:10315000B046504615D5CAF1000413E01198012479
:103160004AA3012801D16FEA0B010298119AC0E924
:103170000031C0E9024206B000F08EB8CBF1000089
:10318000DFE704460021404A491842EB0450CDE9EC
:10319000001012E0E00707D032463B464046494661
:1031A000FDF798F98046894632463B461046194657
:1031B000FDF790F906460F466410002CEAD1DDE9D0
:1031C0000401DDE90023BAF1000F06DAFDF782F908
:1031D00042464B46FDF77EF905E0FDF7F0F9424621
:1031E0004B46FDF7ECF904460E460022284BFDF74E
:1031F00041FB03D84FF0FF30014607E00022254B8A
:1032000020463146FDF7B7F8FDF71CFB102409E016
:10321000002C0ADB0A220023FDF742F8039B303220
:103220001A55641E50EA0102F2D1641C039AC4F1DB
:1032300011031444119A012A03D0012208430DD12D
:103240000AE0084304D000204FF0110B119072E700
:10325000A3EB0B056D1E0DE05B4504DD4FF0000296
:1032600005F1010504E003DA4FF00002A5F10105C4
:10327000002AECD002981199C0E90231C0E900455A
:1032800079E70000000014400000F03F300000002B
:103290000000F0430000E03F30BCBDE8C09F0000EC
:1032A0002DE9FF4F95B09B468946064600250FE263
:1032B000252877D100242746F84A0121059400E00B
:1032C000044316F8013F203B01FA03F01042F7D106
:1032D00030782A2811D06FF02F033078A0F1300217
:1032E000092A16D8059A44F0020402EB820203EB85
:1032F00042021044761C0590EFE759F8042B059222
:10330000002A03DA504244F40054059044F00204C9
:10331000761C30782E2816D116F8010F44F00404DC
:103320002A280DD06FF02F023078A0F13003092B3E
:1033300009D807EB870302EB4303C718761CF3E7B2
:1033400059F8047B761C30786C280FD006DC4C28AA
:1033500017D068280DD06A2814D104E0742810D042
:103360007A280FD10DE044F400140AE044F48014EC
:1033700001E044F440147278824202D104F58014D2
:10338000761C761C307866280BD013DC582877D052
:1033900009DC002875D04528F6D04628F4D0472807
:1033A0001AD19DE118E0632835D0642879D06528CA
:1033B00012D195E1702873D008DC6728F1D0692814
:1033C0006FD06E280DD06F2806D1B5E073282CD0B1
:1033D000752875D0782874D05A46179990476D1C77
:1033E00075E1C4F30250022809D003280DD0D9F8A2
:1033F000001004280DD00D6009F1040967E1D9F827
:103400000010EA17C1E90052F6E7D9F800100D8064
:10341000F2E70D70F0E719F8041B8DF8001000209A
:103420008DF80100EA46012003E059F804AB4FF0A3
:10343000FF3061074FF0000102D40DE008F10101F7
:103440008846B9420FDA8045F8DB1AF808100029DF
:10345000F4D108E008F1010188468142FADB1AF84C
:1034600008100029F6D105985B46A0EB0807214615
:103470003846179A00F097FA284400EB080507E051
:103480004DE029E10DE01AF8010B5A4617999047D3
:10349000B8F10108F7D25B4621463846179A13E186
:1034A00042E00A220092C4F302524FF0000A022ABC
:1034B00008D059F804CB032A4FEAEC710AD00DE08A
:1034C00029E02AE009F1070121F00702F2E802C130
:1034D000914609E00FFA8CFC4FEAEC71042A03D103
:1034E0004FFA8CFC4FEAEC71002907DA0A460021FA
:1034F000DCF1000C61EB02012D2202E0220504D573
:103500002B228DF80420012203E0E20701D02022C3
:10351000F7E7904659E00A2102E010220DE0102161
:103520004FF0000A00910BE010224FF0000A44F027
:1035300004040827009203E008224FF0000A0092DA
:10354000C4F30252022A05D059F804CB0021032A01
:1035500008D009E009F1070121F00702F2E802C1F1
:10356000914605E01FFA8CFC042A01D10CF0FF0CF7
:103570004FF00008220728D5702806D0009B83F062
:10358000100353EA0A0305D00EE040228DF8042010
:10359000012208E05CEA010206D030228DF8042006
:1035A0008DF8050002229046009B83F0080353EA41
:1035B0000A030AD15CEA010201D1620705D5302273
:1035C0008DF804204FF001087F1E582804D034A045
:1035D00003900EA802900DE036A0F9E7534660462E
:1035E000009AFCF75DFE84460398825C0298401EB8
:1035F000029002705CEA0100F0D1029806A9081A54
:1036000000F1200A600702D524F4803400E001278D
:10361000574502DDA7EB0A0000E0002000EB0A019D
:10362000009005984144401A0590E00306D45B469B
:103630002146179A059800F0B6F90544002706E0E0
:1036400001A85A46C05D179990476D1C7F1C4745DD
:10365000F6DBE0030CD55B462146179A059800F08F
:10366000A2F9054404E030205A46179990476D1C92
:103670000099481E00900029F5DC08E002980299A4
:103680005A460078491C0291179990476D1CBAF16F
:103690000001AAF1010AF1DC65E10000092801003E
:1036A00030313233343536373839616263646566B8
:1036B000000000003031323334353637383941427A
:1036C000434445460000000000F05BF90544761CC9
:1036D000307800287FF4ECAD19B0284600F04EB9E0
:1036E000620700D4062709F1070222F0070CFCE864
:1036F0000223E14603F000485FEA080C02D00FF213
:10370000702C0DE05FEA045C02D50FF2682C07E034
:103710005FEAC47C02D00FF2602C01E0AFF2700CC3
:103720004FF0FF3823F00043CDF850C065280CD08F
:1037300006DC452809D046281DD047283DD13DE06C
:10374000662818D067287ED138E00021112F01DBD0
:10375000112000E0781CCDE9000106A90EA8FFF7B2
:10376000D9FCDDE90F010E9A03910021009207F1C7
:10377000010A04914DE04FF000400097CDE901109F
:1037800006A90EA8FFF7C6FCDDE90F0203920E9B07
:1037900011990022DDF80CA00093049211B9791C54
:1037A00000EB010AB7EB0A0004D4C0F1FF3007F1C7
:1037B000010A0490AAEB0700019044E0012F00DA0F
:1037C00001270021112F01DD112000E03846CDE94D
:1037D000000106A90EA8FFF79DFCDDE90F010E9A76
:1037E0000391002104910092BA4621070CD4039959
:1037F000514500DA8A46BAF1010F05DD009AAAF1B7
:103800000101515C302908D0B84202DA10F1040FEE
:1038100006DA0121CDE9011015E0AAF10101E9E77D
:10382000002805DC049901440491AAEB000102E0A0
:10383000411C514500DD8A460499401A401C019004
:103840004FF000400290200704D40198504501DB5E
:10385000CDF8048000208DF84F0002980DF14F073D
:10386000B0F1004F25D02B200E9002984FF00208A7
:1038700000280CDA404202902D200E9007E00A2129
:103880000298FCF73BFF3031029007F8011DB8F1B8
:103890000001A8F10108F2DC02980028EFD1791E9E
:1038A0000E980870307800F0200040F0450007F8CE
:1038B000020D12A8C01B00F107081498007800B18F
:1038C000012000EB0A01019801EBE07105984144E9
:1038D000401A401E0590E00306D45B462146179A25
:1038E000059800F060F805441498007818B15A461D
:1038F000179990476D1CE00324D55B462146179A23
:10390000059800F050F805441CE00498002807DBF7
:10391000DDE90301884203DD0098405C179901E06E
:10392000179930205A469047049805F10105401C2C
:1039300004900198401E019004D12E205A461799F8
:1039400090476D1CBAF10001AAF1010ADDDC05E027
:1039500017F8010B5A46179990476D1CB8F10001F2
:10396000A8F10108F4DC5B462146179A0598ABE6FE
:103970002D0000002B0000002000000030BCBDE83E
:10398000C08F2DE9F041044600251E4617468804E5
:1039900004D405E039462020B0476D1C641EF9D5DB
:1039A0002846BDE8F0812DE9F041044600251E4679
:1039B0009046C80301D5302700E02027880404D5AD
:1039C00005E041463846B0476D1C641EF9D52846CF
:1039D000BDE8F0814A68002A06D00A68531C0B60D3
:1039E00010704868401E486070470A68531C0B609E
:1039F000107070470FB470B504460D462946204636
:103A000000F040F806A807C801F06EFA70BC5DF837
:103A100014FBF8B504466168481C60602068455C8A
:103A200005F0E00625F0E0078DF800608DF80170E4
:103A3000684601F0DDFC28B9002020618DF8000007
:103A4000FEF7B8FDBDF800100846F8BD80ED080B84
:103A500080ED061B7047000030B589B00446224651
:103A600005A101A8FFF71CFB05462A4601A9044849
:103A7000FFF7DCFA09B030BD25730D0A0000000025
:103A80000044004030B504460D462946204601F06A
:103A900081F9204601F0FAF9204601F0C9F930BD5C
:103AA00008283DD2DFE800F0040B121920272E353C
:103AB0001C49C96C41F001011A4AD16430E019492E
:103AC000C96C41F00201174AD16429E01549C96C5B
:103AD00041F00401134AD16422E01249C96C41F05B
:103AE0000801104AD1641BE00E49C96C41F0100175
:103AF0000C4AD16414E00B49C96C41F02001094A19
:103B0000D1640DE00749C96C41F04001054AD16418
:103B100006E00449C96C41F08001024AD16400BF4B
:103B200000BF70470010024070B505460C46207873
:103B3000202803D16178284601F0FAF9207840283E
:103B400003D12146284601F024FA70BD70B52DED51
:103B50000A8B0446607800F099F80546FCF79EFD54
:103B600041EC190B94ED060BB0EE408AF0EE608A42
:103B700094ED080BB0EE40AAF0EE60AA53EC182BBF
:103B800051EC1A0BFCF798FC41EC1C0B9FED0C0B55
:103B900053EC102BFCF713FD41EC1B0B53EC192BD2
:103BA00051EC1B0BFCF796FC41EC1C0B53EC182B57
:103BB000FCF7E1FB41EC100B00F006B870BD000013
:103BC0000000000000001440BDEC088BBDEC02CBEF
:103BD000FFF7F4BF07B59DF80900102829D2DFE8E8
:103BE00000F0080A0C0E10121416181A1C1E2022BF
:103BF000242600200EBD0120FCE70220FAE7032066
:103C0000F8E70420F6E70520F4E70620F2E70720AE
:103C1000F0E70820EEE70920ECE70A20EAE70B20AE
:103C2000E8E70C20E6E70D20E4E70E20E2E70F20AE
:103C3000E0E70020DEE700000146082916D2DFE8B1
:103C400001F00407090B0D0F11134FF0904070475E
:103C50000748FCE70748FAE70748F8E70748F6E7A8
:103C60000748F4E70748F2E70748F0E70020EEE7E7
:103C70000004004800080048000C004800100048FC
:103C80000014004800180048001C0048014606299E
:103C900010D2DFE801F0030507090B0D0020704783
:103CA0000120FCE70220FAE70320F8E70420F6E70A
:103CB0000520F4E70020F2E702468A4201DD501AAF
:103CC0007047881AFCE738B504462046FFF7A1FE86
:103CD00000909DF80000802815D1E068002809DDDB
:103CE000FEF768FC002020618DF80000BDF8001090
:103CF000084638BD6068A0609DF80100E06020467D
:103D0000FFF787FE00909DF80000A02811D1E06821
:103D1000002804DDA0686060E068401EE0609DF857
:103D20000000C02801D1002060602046FFF771FE2E
:103D300000909DF8000008B900202061BDF8001037
:103D40000846D6E70146062910D2DFE801F0030550
:103D500007090B0D002070470120FCE70220FAE75D
:103D60000320F8E70420F6E70520F4E70020F2E757
:103D700010B52DED068B04462046FFF7E7FEB0EEAA
:103D8000408AF0EE608A9FED0C0B53EC102B51EC47
:103D9000180BFCF714FC41EC190B6068FCF77EFC77
:103DA00041EC1A0B53EC192BFCF794FB41EC100B74
:103DB000BDEC068B10BD0000000000000000594063
:103DC000F0B589B005460E4621480068B04205D1DD
:103DD000304600F0A1FA00201D4908601D48006827
:103DE00000F0200028B31B4808300088C4B22246E7
:103DF00019A101A8FFF754F907463A4601A9154849
:103E00001C38FFF713F9124800682C54082C0BD10A
:103E10000F480068002804DD0D480068401E0C496A
:103E20000860002009B0F0BD09480068401C08493E
:103E300008600D2C09D1002105480068401E295456
:103E40000020034908600120ECE70020EAE70000B9
:103E5000040000201C4400402563000030B50446E7
:103E60000D4600F005F82946204600F08CFF30BDD5
:103E70000848806D40F001000649886588040068A4
:103E800020F01000890408600846006840F0010036
:103E9000086070470010024037B59DF80000FFF73A
:103EA000FFFD9DF80000FFF7C7FE044600239DE8D4
:103EB000070000F0EDF90546206828402060012346
:103EC0009DE8070000F0E4F90546206828432060DB
:103ED0003EBD00224260C260826001600122026138
:103EE000704770B504460E46154626706560002082
:103EF00020720021204601F01BF870BD0FB4F0B510
:103F00008DB004460F46164604EB440000EBC40097
:103F1000274901EBC005002203210A2001F09AFB8A
:103F2000244941F8240044F62062314602A8FFF7F4
:103F3000D8FF3CB99FED201B9FED210B02A8FFF796
:103F400085FD10E0012C07D19FED1F1B9FED200B7D
:103F500002A8FFF77BFD06E09FED1F1B9FED200BE6
:103F600002A8FFF773FD002102A800F0E1FF2C601A
:103F700010223946281DFCF7EBF9282202A905F189
:103F80001800FCF7C1F9142215A905F14000FCF74F
:103F9000BBF905F1540002212B46CA01CDE90010FE
:103FA0003946114801F09CFD0DB0F0BC5DF814FBE2
:103FB0006801002010000020CDCCCCCCCCCC084037
:103FC0000000000000002140000000000000084048
:103FD00000000000000023400000000000000C4032
:103FE0000000000000002040A14C00080122826077
:103FF000024A1268026041607047000024040040D9
:1040000000B500F0D5FF00BD2DE9FC41054688460E
:1040100016461F460A4C25606661A761102241467C
:10402000201DFCF795F90221E0692346CA01CDE97C
:1040300000104146034801F053FDBDE8FC8100003B
:1040400048010020F54F000810B504460CB9FCF7F4
:104050003FFC012C01D1FEF7A3FA10BD10B50446B8
:104060000CB9FCF73FFC012C01D1FEF7A3FA10BDFF
:10407000A8B0FCF757FDFEF74BFBFDF7BFFFFFF7BE
:10408000BFFFFEF7C1FAFEF71BF8FEF773F8FEF765
:1040900081F83EA0FEF7ACFF41A0FEF7A9FF454A1C
:1040A00007CA25AB07C3434A0C32D2E90010926815
:1040B000CDE92302229144F620615020FFF7CEFE85
:1040C0002798009000210846DDE92523FFF792FCA0
:1040D0002498009000210220DDE92223FFF78AFCCA
:1040E00035A0FEF785FF14211DA8FCF726F9142141
:1040F00018A8FCF722F933A207CA15AB07C334A0EE
:1041000003C8CDE9130134A103C9CDE9110134A1DC
:1041100003C9CDE90F01142233A10AA8FCF7F4F872
:1041200036A103C9CDE9080136A103C9CDE90601CD
:1041300011A91DA8FFF7CDFE13A918A8FFF7C9FE06
:1041400032A0FEF755FF1EA80FC88DE80F00002211
:1041500032A110461D9BFFF7D1FE19A80FC88DE8AC
:104160000F0002222FA10120189BFFF7C7FE032397
:1041700005AA2EA10120FFF747FF2EA0FEF738FF6A
:10418000FDF78AFF00F0ABF800BFFEE753797374C8
:10419000656D436C6F636B20537461727400000033
:1041A00053797374656D436C6F636B20446F6E65F8
:1041B00000000000145F000850574D20646F6E65CA
:1041C00000000000822520A04585254223A0000094
:1041D00085255E20A0000000852520A000000000AD
:1041E000255F5F5F20002500202520232124A020BB
:1041F0002240234022235F5F5F240000822520822B
:1042000023A0A00020250520000000005374617247
:1042100074696E67205461736B0000005365727699
:104220006F5F3000536572766F5F310055495F54A0
:1042300061736B0053797374656D20696E6974697D
:10424000616C697A65642C207374617274696E673D
:10425000204672656552544F530D0A0001460020F6
:10426000842901D0CA1C10447047014631B101298C
:1042700006D0022906D0032908D105E000207047A6
:104280000120FCE70220FAE70320F8E70020F6E728
:104290001FB59DF80800FFF7E8FF044601984200AB
:1042A0005BB1012B02D0022B0BD103E004FA02F028
:1042B00004B010BD04FA02F0FAE703209040C043B6
:1042C000F6E70020F4E770B5044625460DB129460F
:1042D00000E00121084600F09DFF002070BD10B5F0
:1042E00000F0F4FF002010BDFEB504460D46B4F901
:1042F0000800FFF7B3FF064602A8CDE90060238A55
:104300009AB22B46D4E9001001F0EAFB012801D053
:104310000020FEBD0298FCE730B599B004460BA121
:104320006846FEF7BDFE05462A4669460E48FEF77A
:104330007DFE22460DA16846FEF7B2FE05462A46DE
:1043400069460948FEF772FE19B030BD0D0A45787E
:104350006365656465642063686172206C696D697A
:1043600074210D0A0000000000440040496E707581
:1043700074206D6179206E6F742065786365656463
:1043800020256420636861726163746572732E0D09
:104390000A506C6561736520747279206167616988
:1043A0006E2E0D0A0000000038B504460020009073
:1043B0002078622857D00EDC4E2851D006DC4228E7
:1043C00050D0432822D04C285AD13BE050280FD05F
:1043D000522855D128E06E2843D004DC632816D03B
:1043E0006C284DD12FE0702803D0722848D11CE0F2
:1043F00000BF5AA203216846FEF73AFE584900233F
:104400001A460868694601F09DF93AE000BF55A2D6
:1044100003216846FEF72CFE514900231A4608681E
:10442000694601F08FF92CE000BF4FA203216846D6
:10443000FEF71EFE4A4900231A460868694601F045
:1044400081F91EE000BF49A203216846FEF710FE75
:10445000434900231A460868694601F073F910E0E1
:1044600000BF0EE000BF3DA203216846FEF700FE3C
:104470003B4900231A460868694601F063F900E0E9
:1044800000BF00BF6078622857D00EDC4E2851D0A4
:1044900006DC422850D0432822D04C285AD13BE099
:1044A00050280FD0522855D128E06E2843D004DC84
:1044B000632816D06C284DD12FE0702803D07228C5
:1044C00048D11CE000BF25A203216846FEF7D0FDBD
:1044D000234900231A464868694601F033F93AE057
:1044E00000BF20A203216846FEF7C2FD1C4900233D
:1044F0001A464868694601F025F92CE000BF1AA267
:1045000003216846FEF7B4FD154900231A464868A2
:10451000694601F017F91EE000BF14A203216846A6
:10452000FEF7A6FD0E4900231A464868694601F0C9
:1045300009F910E000BF0EE000BF0DA2032168469C
:10454000FEF796FD064900231A464868694601F0C1
:10455000F9F800E000BF00BF38BD000070000000A7
:104560001000002063000000720000006C000000DA
:10457000620000002DE9F04105460E461C48076820
:104580001C480068001D00F055FD50B9194800682E
:1045900090F82C100120884017490968814316487B
:1045A0000160681C38B936B112480168091D13480A
:1045B00000F07EFD1AE07C190E4800684460BC42A1
:1045C00007D20C480168091D0D48006800F056FD2F
:1045D0000CE008480168091D0A48006800F04EFD1B
:1045E00009480068844201D207480460BDE8F081B0
:1045F0003400002020000020380000204C03002060
:1046000028000020240000205000002010B504469F
:1046100000F05AFD23480068401C224908602248E7
:10462000006840B9204804600846006801280DD1A0
:1046300000F084F90AE01D48006838B91A4800689B
:10464000C06AE16A884201D81748046018480068C7
:10465000401C1749086094F82C1001208840154927
:104660000968084313490860E16A01EB8101124AB5
:1046700002EB8100211D00F01BFD00F04FFD0B48F7
:10468000006868B108480068C06AE16A884207D2D9
:104690004FF0805009490860BFF34F8FBFF36F8F11
:1046A00010BD000030000020200000203C00002051
:1046B0004C000020380000207002002004ED00E0D3
:1046C00010B516E000F000FD0C48C068C468201D5D
:1046D00000F0B0FC0A480068401E0949086009481B
:1046E0000068401E0749086000F018FD204600F0F1
:1046F0005EF8044800680028E4D110BD38030020AB
:10470000300000202C00002070B504460D46206CBF
:1047100070B1216CE0680844E0606168E06888423C
:1047200001D32068E0602846226CE168FBF7ECFDCD
:1047300070BD2DE9F04104460F4615464FF00008C4
:10474000A66B206C40B9206860BB606801F0B0FACD
:1047500080460020606025E07DB93946226CA06863
:10476000FBF7D2FD216CA0680844A060D4E90110D9
:10477000884217D32068A06014E03946226CE068B4
:10478000FBF7C2FD216CE068401AE0602168E06838
:10479000884203D2216C6068401AE060022D01D18A
:1047A00006B1761E701CA0634046BDE8F08110B5CE
:1047B0000446206B00F0D0FC204600F0CDFC10BD7C
:1047C00030B54FF48033174800F007042CB1C01DFA
:1047D00020F00700134C041B1B1B0246124C2260E6
:1047E0000024114D6C60D018083820F007000F4CE1
:1047F000206000240D4D2D686C600C4D2D682C60E0
:104800001146441A4C60094C24680C60084D4C68F1
:104810002C60084D4C682C604FF00044064D2C6015
:1048200030BD0000600300205C0000206400002018
:104830006C000020680000207000002000BFFFF71F
:104840003FFF064800680128F9D94FF0805004491D
:104850000860BFF34F8FBFF36F8FF0E77002002047
:1048600004ED00E02DE9F04106460D461746984656
:10487000069C0DB9246000E02760E66325640121F1
:10488000204600F013FFBDE8F0812DE9FF5F81466F
:104890000F469246DDE90E6B109CAAF10100216BD8
:1048A00001EB800828F0070808F0070008B901208C
:1048B00000E0002050B900BF502080F31188BFF302
:1048C0004F8FBFF36F8F00BF00BFFEE7002507E0EB
:1048D000795D04F134004155785D00B902E06D1C4A
:1048E000102DF5D300BF002143200155072E00D322
:1048F0000626E66266640020A064201D00F0BBFB73
:1049000004F1180000F0B7FB2461C6F10700A061B4
:1049100064620020E06484F8500049464046039AEF
:1049200000F0A8F92060BBF1000F01D0CBF80040E7
:1049300000F000B83FBCBDE8C09F000010B50024E7
:1049400007E004EB84010F4A02EB810000F086FBD4
:10495000641C072CF5D30C4800F080FB0B4800F0DA
:104960007DFB0B4800F07AFB0A4800F077FB0A4811
:1049700000F074FB044809490860044808490860CD
:1049800010BD000070020020FC0200201003002077
:1049900024030020380300204C03002024000020C2
:1049A0002800002010B50146164800E000680368A2
:1049B0008B42FBD30246436813448B4204D14368C5
:1049C0004C682344436001460A464B68134404681C
:1049D000A34211D10C4C03682468A34208D04B6851
:1049E0000468646823444B6003681B680B6005E03F
:1049F000054B1B680B6001E003680B60884200D028
:104A0000016010BD5C0000206400002070B5054608
:104A100000F05AFBA86B08B9012400E0002400F064
:104A20007DFB204670BD70B5054600F04DFBA86BC0
:104A3000E96B884201D1012400E0002400F06EFB04
:104A4000204670BD0A490968096809B9012100E0DA
:104A5000002121B14FF0FF31064A116006E0044900
:104A60000968C968C868034A416811607047000056
:104A700024000020500000200E480068401C08B9A7
:104A8000012000E0002050B900BF502080F31188C1
:104A9000BFF34F8FBFF36F8F00BF00BFFEE700BFB4
:104AA000502080F31188BFF34F8FBFF36F8F00BF8B
:104AB00000BFFEE77400002070B5044600F004FB60
:104AC00094F9455010E0606A08B9012000E0002028
:104AD00038B904F1240001F04FF918B100F0D4FB0B
:104AE00000E003E0681E45B2002DECDC00BFFF20B3
:104AF00084F8450000F012FB00F0E6FA94F9445007
:104B000010E0206908B9012000E0002048B904F154
:104B1000100001F031F908B100F0B6FB681E45B293
:104B200000E001E0002DECDC00BFFF2084F8440031
:104B300000F0F4FA70BD00002DE9F04104464FF09A
:104B4000000800F007FC4648006808B9FFF738FE87
:104B500044480068204000286BD1D4B1083404F0E8
:104B60000700B0B104F00700C0F10800044404F0ED
:104B7000070008B9012000E0002050B900BF502014
:104B800080F31188BFF34F8FBFF36F8F00BF00BF5B
:104B9000FEE7002C4DD034480068844249D8334E9B
:104BA0003046056801E02E462D686868A04202D2B2
:104BB00028680028F7D12A480068854239D0306833
:104BC00000F10808286830606868001B102819D9AF
:104BD0002F1907F0070008B9012000E0002050B9A4
:104BE00000BF502080F31188BFF34F8FBFF36F8F4A
:104BF00000BF00BFFEE76868001B78606C60384645
:104C0000FFF7D0FE184968680968081A1649086055
:104C10000846006816490968884203D212480068AD
:104C2000134908600F4968680968084368600020F4
:104C3000286001F0EDF808F0070008B9012000E055
:104C4000002050B900BF502080F31188BFF34F8F70
:104C5000BFF36F8F00BF00BFFEE74046BDE8F081A5
:104C60006400002070000020680000205C0000202C
:104C70006C000020001F4FF080730360001F21F0C4
:104C800001030360001F054B036014380260001F1E
:104C90006FF002030360203870470000794A000873
:104CA0001CB5054600BF2C462668002001902CE06C
:104CB000164951F82600002201A900F017FE20B184
:104CC00001AA211D12A0FEF793F9206DB0B1206852
:104CD000FFF7C4F904F14000FEF7F5FF00909DF8DE
:104CE0000000402804D19DF8010000F093FA04E090
:104CF000694604F11800FEF717FF02E02068FFF78D
:104D0000A3F94FF47A7000F085FAD1E71000002083
:104D10005461736B2025733A20636F6D6D616E640F
:104D20002072656369657665643A2025730D0A0013
:104D3000F7B59DF80000FEF77FFF04460025019EB1
:104D40009DE80700FEF746FF07460198082803DBA9
:104D500001250198A0F10806B60004F1200050F8E2
:104D600025000F21B140884304F1200141F82500BE
:104D7000084650F8250007FA06F1084304F120011F
:104D800041F82500FEBD421E4FF080439A621A464C
:104D9000D162704710B5024609B9062002E0012928
:104DA00000D1072032B1012A12D0022A1ED0032AD4
:104DB00038D129E04FF080439B691B4C23404FF0D2
:104DC0008044A36123469B6943EA0013A36129E061
:104DD0004FF080439B69154C23404FF08044A36102
:104DE00023469B6943EA0033A3611BE04FF08043F5
:104DF000DB690D4C23404FF08044E3612346DB69BF
:104E000043EA0013E3610DE04FF08043DB69074C98
:104E100023404FF08044E3612346DB6943EA0033DB
:104E2000E36100BF00BF10BD8FFFFEFFFF8FFFFEDD
:104E300030B101280DD0022814D0032824D11AE063
:104E40004FF08041096A41F001014FF08042116248
:104E50001AE04FF08041096A41F010014FF08042A2
:104E6000116211E04FF08041096A41F480714FF006
:104E70008042116208E04FF08041096A41F480519C
:104E80004FF08042116200BF00BF704730B101286F
:104E90000DD0022814D0032824D11AE04FF080410D
:104EA000896941F008014FF0804291611AE04FF0AA
:104EB0008041896941F400614FF08042916111E0C5
:104EC0004FF08041C96941F008014FF08042D16143
:104ED00008E04FF08041C96941F400614FF0804221
:104EE000D16100BF00BF704707B59DE80700FEF71E
:104EF000D3FF9DE80700FFF71BFF0EBD30B101286F
:104F000008D002280AD0032810D10BE04FF08042CD
:104F100051630BE04FF08042916307E04FF0804215
:104F2000D16303E04FF08042116400BF00BF7047BF
:104F30002DE9F0412DED028B04460D466078FEF719
:104F4000A5FE804641462846FEF7B6FE06462846A0
:104F5000FEF7F8FE6070012020722046FEF708FF81
:104F6000B0EE408AF0EE608A51EC180BFBF7A7FB1D
:104F7000074620783946FFF7C1FF4FF47A7006FBE9
:104F800000F104F10C00FFF731F8BDEC028BBDE835
:104F9000F08170B504460D46022020726878C0EB9F
:104FA0000020410004F10C00FFF720F870BD000064
:104FB0000D48806D40F002000B4988650B480C4994
:104FC00008604EF66020091D08600948283800680E
:104FD00020F010000649283908600846006840F0B3
:104FE000010008607047000000100240F00D0C0046
:104FF0002804004005462C4612E003216069FEF7B4
:10500000DFFE68B16069FEF727FD606900F009FA0C
:1050100018B16069FFF7C8F902E002A0FEF71CFDB5
:10502000EBE70000496E76616C696420496E70752B
:105030007400000001460A69D1E901309860D1E9A5
:10504000010358605068884201D188685060002090
:1050500008611068401E10601068704700F1080178
:1050600041604FF0FF31816000F10801C1600161D2
:1050700000210160704700210161704710B50246B0
:105080000B685C1C0CB9106907E002F1080000E035
:105090004068446824689C42FAD944684C604C6873
:1050A000A160886041600A611468641C146010BDCE
:1050B00042684A6093688B609368596091600861A8
:1050C00003685B1C0360704700BF502080F31188A9
:1050D000BFF34F8FBFF36F8F00BF0E480068401CB7
:1050E0000C49086008460068012812D10A48006887
:1050F000C0B208B9012000E0002050B900BF502024
:1051000080F31188BFF34F8FBFF36F8F00BF00BFD5
:10511000FEE770477400002004ED00E00D480068D1
:1051200050B900BF502080F31188BFF34F8FBFF3F9
:105130006F8F00BF00BFFEE706480068401E0549AC
:1051400008600846006820B9002080F3118800BF7D
:1051500000BF70477400002070B506463546002E2B
:105160003FD0083D2C461F4960680968084008B1D7
:10517000012000E0002050B900BF502080F31188CA
:10518000BFF34F8FBFF36F8F00BF00BFFEE72068F4
:1051900008B9012000E0002050B900BF502080F382
:1051A0001188BFF34F8FBFF36F8F00BF00BFFEE7C3
:1051B0000C4960680968084098B1206888B90949B5
:1051C000606809688843606000F0C4F80649606858
:1051D00009680844044908602046FFF7E3FB00F033
:1051E00017FE70BD700000206800002000204FF006
:1051F000E02108618861064800684FF47A71B0FBCD
:10520000F1F0401E4FF0E02148610720086170472F
:105210001C00002070B504460025D4B11248006877
:1052200008B9012000E0002050B900BF502080F3F1
:105230001188BFF34F8FBFF36F8F00BF00BFFEE732
:1052400000F088F800212046FFF794F900F0E0FD17
:1052500005463DB94FF0805004490860BFF34F8FB9
:10526000BFF36F8F70BD00005800002004ED00E018
:1052700003490968016003490968416070470000FB
:1052800048000020340000200120014908607047D8
:105290004400002070B504460D4654B900BF5020AC
:1052A00080F31188BFF34F8FBFF36F8F00BF00BF34
:1052B000FEE70548016818312046FFF7DFFE0121AF
:1052C0002846FFF757F970BD200000201CB51A488A
:1052D00000210B468022CDE9001018A1194800F0EA
:1052E000FFFB0446012C15D100BF502080F311882C
:1052F000BFF34F8FBFF36F8F00BF4FF0FF301249E6
:10530000086001201149086000201149086000F080
:10531000EDF810E0601C08B1012000E0002050B959
:1053200000BF502080F31188BFF34F8FBFF36F8F02
:1053300000BF00BFFEE71CBD5400002049444C459F
:10534000000000003D480008500000203C00002004
:105350003400002002480068401C01490860704782
:10536000580000201D48006818B101201C49086041
:1053700032E000201A4908601A480068B0FA80F04C
:10538000C0F11F0101EB8100174A52F8200008B15B
:10539000012000E0002050B900BF502080F31188A8
:1053A000BFF34F8FBFF36F8F00BF00BFFEE701EB6E
:1053B00081020D4B03EB820042685268426000F1AB
:1053C00008024368934202D14268526842604268D0
:1053D000D268064B1A6000BF7047000058000020DA
:1053E000440000203800002070020020200000202F
:1053F0000146087880280DD005DC68B1202807D048
:1054000040280CD105E0A02805D0C02807D104E031
:1054100000BF00BF00BF00BF00BF012070470020D9
:10542000FCE7014600200A78622A27D00EDC4E2ACB
:1054300021D006DC422A20D0432A16D04C2A1FD184
:1054400017E0502A0FD0522A1AD110E06E2A13D03A
:1054500004DC632A0AD06C2A12D10BE0702A03D034
:10546000722A0DD104E000BF00BF00BF00BF00BF23
:1054700000BF00BF00BF00BF00BF00BF012001E0B0
:10548000002000BF00BF4A78622A27D00EDC4E2AD7
:1054900021D006DC422A20D0432A16D04C2A20D123
:1054A00017E0502A0FD0522A1BD110E06E2A13D0D9
:1054B00004DC632A0AD06C2A13D10BE0702A03D0D3
:1054C000722A0ED104E000BF00BF00BF00BF00BFC2
:1054D00000BF00BF00BF00BF00BF00BF00B1012080
:1054E00001E0002000BF00BF704700001CB552481B
:1054F00000685249884201D0012000E0002050B9E4
:1055000000BF502080F31188BFF34F8FBFF36F8F20
:1055100000BF00BFFEE7484800684849491E88426E
:1055200001D0012000E0002050B900BF502080F3DE
:105530001188BFF34F8FBFF36F8F00BF00BFFEE72F
:105540003F49084600780190FF200A46107008463F
:10555000007800909DF8000000F0F0009DF8002019
:10556000904201D1012000E0002050B900BF50203E
:1055700080F31188BFF34F8FBFF36F8F00BF00BF61
:10558000FEE79DF8000000F050002E4A1070072042
:105590002D4A106009E02C480068401E2A4A10601D
:1055A0009DF800004006000E00909DF8000000F0FD
:1055B00080008028EFD024480068C0F1070004284C
:1055C00001D1012000E0002050B900BF502080F33D
:1055D0001188BFF34F8FBFF36F8F00BF00BFFEE78F
:1055E000194800680002184A10601046008800F44C
:1055F000E0601060124A019810700F482030006877
:1056000040F470000C49203108600846006840F002
:1056100070400860FFF7EAFD00200C490860FAF7C7
:10562000E1FD0B48006840F0404009490860FAF786
:10563000C5FD00201CBD000000ED00E071C20F415F
:1056400000E400E0780000207C00002074000020CE
:1056500034EF00E02DE9F84305460E4690460DB1C3
:10566000012000E0002050B900BF502080F31188D5
:10567000BFF34F8FBFF36F8F00BF00BFFEE70EB9C0
:10568000002701E005FB06F707F14800FFF754FA91
:10569000044644B104F1480943464A463146284687
:1056A0000094FFF7DFF82046BDE8F88370B50546A3
:1056B0000E462C4654B900BF502080F31188BFF32A
:1056C0004F8FBFF36F8F00BF00BFFEE7FFF7FCFCFB
:1056D000D4E90F12206801FB020060600020A06383
:1056E0002068A060E06B401E226C216800FB021065
:1056F000E060FF2084F8440084F845009EB92069EA
:1057000008B9012000E00020A8B904F1100000F061
:1057100033FB80B14FF0805009490860BFF34F8FD1
:10572000BFF36F8F07E004F11000FFF797FC04F15F
:105730002400FFF793FCFFF7F1FC012070BD00008F
:1057400004ED00E02DE9FF4383B0064688461D4680
:105750004FF00009344654B900BF502080F311883F
:10576000BFF34F8FBFF36F8F00BF00BFFEE7B8F1ED
:10577000000F01D1206C08B9012000E0002050B9D1
:1057800000BF502080F31188BFF34F8FBFF36F8F9E
:1057900000BF00BFFEE7022D02D1E06B012801D15E
:1057A000012000E0002050B900BF502080F3118894
:1057B000BFF34F8FBFF36F8F00BF00BFFEE700F056
:1057C000C3F908B9059808B9012000E0002050B9D4
:1057D00000BF502080F31188BFF34F8FBFF36F8F4E
:1057E00000BF00BFFEE700BFFFF76EFCA06BE16BE0
:1057F000884201D3022D28D12A4641462046FEF791
:1058000098FF0746606A08B9012000E0002068B9E7
:1058100004F1240000F0B0FA88B14FF08050324912
:105820000860BFF34F8FBFF36F8F08E03FB14FF0B9
:1058300080502D490860BFF34F8FBFF36F8FFFF784
:105840006DFC012007B0BDE8F083059818B9FFF79B
:1058500065FC0020F6E7B9F1000F04D101A8FFF7BD
:1058600007FD4FF00109FFF759FCFFF773FDFFF744
:105870002BFC94F94400401C10B9002084F844002B
:1058800094F94500401C10B9002084F84500FFF74A
:1058900045FC05A901A800F0DDF8F0B92046FFF7A6
:1058A000C2F8A0B104F110000599FFF7F3FC2046FF
:1058B000FFF702F900F0ACFA002895D14FF08050C4
:1058C00009490860BFF34F8FBFF36F8F8CE7204605
:1058D000FFF7F2F800F09CFA86E72046FFF7ECF8B5
:1058E00000F096FA0020ADE704ED00E02DE9F74165
:1058F00083B005460E464FF000082C4654B900BF51
:10590000502080F31188BFF34F8FBFF36F8F00BF1C
:1059100000BFFEE70EB9206C08B9012000E00020AE
:1059200050B900BF502080F31188BFF34F8FBFF3F1
:105930006F8F00BF00BFFEE700F006F908B90598B9
:1059400008B9012000E0002050B900BF502080F3CA
:105950001188BFF34F8FBFF36F8F00BF00BFFEE70B
:1059600000BFFFF7B1FBA76BF7B131462046FEF74A
:10597000CBFE781EA063206908B9012000E000205A
:1059800060B904F1100000F0F7F938B14FF0805021
:105990002F490860BFF34F8FBFF36F8FFFF7BEFB38
:1059A000012006B0BDE8F081059818B9FFF7B6FBF5
:1059B0000020F6E7B8F1000F04D101A8FFF758FC6A
:1059C0004FF00108FFF7AAFBFFF7C4FCFFF77CFBD1
:1059D00094F94400401C10B9002084F8440094F964
:1059E0004500401C10B9002084F84500FFF796FBE5
:1059F00005A901A800F02EF8F0B92046FFF706F837
:105A0000A0B104F124000599FFF744FC2046FFF7FC
:105A100053F800F0FDF90028A3D14FF080500C4955
:105A20000860BFF34F8FBFF36F8F9AE72046FFF7F1
:105A300043F800F0EDF994E72046FFF73DF800F059
:105A4000E7F92046FEF7E2FF00288AD00020A8E709
:105A500004ED00E070B505460C4655B900BF502076
:105A600080F31188BFF34F8FBFF36F8F00BF00BF6C
:105A7000FEE754B900BF502080F31188BFF34F8F69
:105A8000BFF36F8F00BF00BFFEE7FFF71DFB12489B
:105A900002686868131A2068401C08B9002617E0DD
:105AA0000E4928680968884204D06868904201D885
:105AB00001260DE02068984207D92068C01A2060AE
:105AC0002846FFF7D5FB002602E0002020600126D3
:105AD000FFF724FB304670BD340000204800002052
