:020000040800F2
:10000000B88700207D020008552100081120000853
:10001000512100088F080008E92D000800000000A9
:100020000000000000000000000000009D0100082A
:100030009308000800000000F901000829250008C5
:10004000970200089702000897020008970200082C
:10005000970200089702000897020008970200081C
:10006000970200089702000897020008970200080C
:1000700097020008970200089702000897020008FC
:1000800097020008970200089702000897020008EC
:1000900097020008970200089702000897020008DC
:1000A00097020008652600089702000897020008DA
:1000B00097020008970200089702000897020008BC
:1000C00097020008970200089702000897020008AC
:1000D000970200089702000897020008970200089C
:1000E000970200089702000897020008970200088C
:1000F000970200089702000897020008970200087C
:10010000970200089702000897020008970200086B
:10011000970200089702000897020008970200085B
:10012000970200089702000897020008970200084B
:10013000970200089702000897020008970200083B
:10014000970200089702000897020008970200082B
:10015000970200089702000897020008970200081B
:10016000970200089702000897020008970200080B
:10017000970200089702000897020008000000009C
:100180009702000897020008DFF80CD000F0FEFA92
:100190000048004779400008B88700202C4B1968B8
:1001A000086800F05AB880F30988BFF36F8F4FF0EA
:1001B000000080F3118870470000000008480068C4
:1001C000006880F308884FF0000080F3148862B65E
:1001D00061B6BFF34F8FBFF36F8F00DF00BF00BF6B
:1001E00008ED00E0DFF80C00016841F470010160E7
:1001F000704700BF88ED00E0EFF30980BFF36F8F19
:10020000134B1A681EF0100F08BF20ED108A20E96A
:10021000F04F106009B44FF0500080F31188BFF325
:100220004F8FBFF36F8F04F093FE4FF0000080F309
:10023000118809BC1968086800F014B81EF0100F86
:1002400008BF00F014B880F30988BFF36F8F7047C0
:1002500034000020EFF30580704730C8B0E8C04F8D
:10026000FFF7A1BF30C8B0E8C04FFFF7E7BFB0EC61
:10027000088AB0EC08CAFFF7E6BF000006488047CE
:1002800006480047FEE7FEE7FEE7FEE7FEE7FEE77B
:10029000FEE7FEE7FEE7FEE71526000889010008F5
:1002A0002DE9F05F0546002092469B4688460646AB
:1002B000814640241BE0284641464746224600F03E
:1002C00092F853465A46C01A914110D31146184627
:1002D000224600F079F82D1A67EB01084F462246B6
:1002E0000120002100F070F817EB00094E41201E9C
:1002F000A4F10104DFDC484631462A46434600F0BB
:1003000000B830BCBDE8C09F40EA01039B0703D0A2
:1003100009E008C9121F08C0042AFAD203E011F844
:10032000013B00F8013B521EF9D27047D2B201E006
:1003300000F8012B491EFBD270470022F6E710B5EA
:1003400013460A4604461946FFF7F0FF204610BD43
:1003500010B5044604E00B7800F8013B03B1491CDA
:10036000521EF8D2204610BD421C10F8011B002975
:10037000FBD1801A704700F0004230F000400AD0F4
:10038000C10D01F56071C0F3160042EA0151C208C7
:1003900040071143704700200146704730B50B46B7
:1003A000014600202022012409E021FA02F59D42A5
:1003B00005D303FA02F5491B04FA02F52844151E79
:1003C000A2F10102F1DC30BD202A04DB203A00FA60
:1003D00002F1002070479140C2F1200320FA03F39C
:1003E000194390407047202A04DB203A21FA02F09A
:1003F0000021704721FA02F3D040C2F1200291405F
:100400000843194670472DE9FE4F804681EA0300F4
:10041000C00F0C46009021F0004123F00045B8EBDE
:100420000200A94105D24046214690461C460B4693
:10043000024623F00040104347D0270DC7F30A00BF
:10044000C3F30A510290401A019040286BDAC3F3BB
:10045000130040F4801B0098924620B10023D2EB99
:10046000030A63EB0B0B01985946C0F1400250465A
:10047000FFF7AAFF06460D4650465946019A00F07E
:1004800097F910EB08006141002487EA115284EAD1
:10049000E7731A4340D0009A62B3019A012A4FEAE7
:1004A000075215DC001B61EB02014FF0004202EA2B
:1004B0000752CDE90042001C41F5801132462B461F
:1004C00000F097F903B000F045B840462146F9E73F
:1004D000001B61EB0201001C41F5801300185B4119
:1004E0002018A2F5001747EB030140EAD570B619B2
:1004F0006D4111E06D084FEA360645EAC0754FEAD6
:100500000752001B61EB0201001C41F580114908F4
:100510004FEA30000019514132462B4603B000F03B
:100520001CB800F057B90098012240000023D0EB1E
:10053000020263EBE073009821464FEAE074B8EBE7
:10054000000061EB0401E9E783F000435BE781F021
:10055000004158E730BCBDE8C08F30BCBDE8C04F9B
:10056000FFF7DFBF2DE9FE4F81EA030404F00044EA
:1005700021F0004100944FF0000B23F0004350EABB
:1005800001045ED052EA03045BD0C3F30A54C1F302
:100590000A552C44A4F2F3340194A0FB0254C1F395
:1005A000130141F48011C3F3130343F4801301FBDF
:1005B000024400FB034E840A970A44EA815447EA46
:1005C0008357A4FB076802958D0A05FB07854FEA50
:1005D000932C04FB0C542705029D4FEA065847EA6A
:1005E0001637B5EB08056EEB070C870E920E47EA3F
:1005F000811742EA8312A7FB0201B6EB0B0164EB01
:1006000000042B0D43EA0C335E1844EB1C50DA4611
:100610005146E7FB0201C5F313044FEA0B3343EAEB
:1006200014534FEA0432019C43EA0603A4F10C047C
:100630000294009CCDE900B400F0DBF803B000F0B8
:1006400003B800200146F9E730BCBDE8C08F2DE9B2
:10065000F04D81EA030404F0004B21F000451446FC
:100660004FF0000A23F0004150EA050220D054EA7E
:1006700001021DD0C5F30A570246C5F31303C1F3A7
:100680001300C1F30A5640F4801543F48013A7EB1E
:100690000608101BD64608F2FD3873EB050002D39E
:1006A00008F1010801E092185B41B8F1000F03DA8C
:1006B00000200146BDE8F08D00204FF48011064671
:1006C00084460EE0171B73EB050705D3121B63EB83
:1006D000050306434CEA010C49084FEA3000921822
:1006E0005B4150EA0107EDD152EA030012D082EAE1
:1006F000040083EA0501084305D0101BAB4106D274
:100700000122002306E000224FF0004302E06FF0D8
:10071000010253101AEB06004CEB085110EB0A00D3
:1007200041EB0B01BDE8F04D00F054B8C1F30A52A3
:10073000C1F3130140F2FF3341F480119A4202DA0F
:1007400000200146704740F233439A42A2F23342FE
:1007500002DC5242FFF747BEFFF736BE30B5041E3B
:1007600071F1000404DB4FF00044404264EB0101EE
:10077000141E73F1000405DB1C464FF00043524287
:1007800063EB0403994208BF904230BD064C074D0D
:1007900006E0E06840F0010394E807009847103451
:1007A000AC42F6D3FFF7F4FC905B0008B05B0008A6
:1007B000202A06DBCB17203A41FA02F043EAE07325
:1007C00006E041FA02F3D040C2F120029140084312
:1007D0001946704710B5141E73F1000408DA401C66
:1007E00041F1000192185B411A4301D120F0010050
:1007F00010BD2DE9F04D92469B4611B1B1FA81F240
:1008000002E0B0FA80F220329046FFF7DDFD0446A8
:100810000F4640EA0A0041EA0B0153465A46084394
:1008200013D0114653EA010019D0C8F140025046D6
:10083000FFF7D9FD05460E46504659464246FFF79A
:10084000C3FD084305D0012004E020463946BDE839
:10085000F08D0020054346EAE0762C4337430A98A2
:100860006305E40AA0EB08000022FD0A44EA4754AD
:100870000A3002D500200146E9E701051019694157
:10088000DDE9084500196941BDE8F04DA2E700BF68
:10089000FEE770477047000078B503460022E5E0A8
:1008A000012696400D6805EA0604002C7DD04D68AF
:1008B000022D02D04D68122D13D1D60803F1200568
:1008C00055F826005507EE0E0F25B540A8435607EC
:1008D000F60E0D69B5402843D60803F1200545F80A
:1008E0002600186856000325B540A8430D7905F089
:1008F00003055600B540284318604D68012D08D007
:100900004D68022D05D04D68112D02D04D68122D75
:1009100013D1986856000325B540A8435600CD680A
:10092000B54028439860586801259540A8430D7943
:10093000C5F300159540284358600D7905F003056F
:10094000032D09D1D86A01259540A8430D79C5F337
:10095000C00595402843D862D86856000325B540A5
:10096000A84356008D68B5402843D8604D6805F00F
:100970008055B5F1805F78D100BF3F4D2D6E45F0B9
:1009800001053D4E356635462D6E05F00105009595
:1009900000BF00BF4FEAB635960855F82600950708
:1009A0002E0F0F25B540A84300E05EE0B3F1904F55
:1009B00001D100251EE0314DAB4201D1012519E0E6
:1009C0002F4DAB4201D1022514E02E4DAB4201D197
:1009D00003250FE02C4DAB4201D104250AE02B4D3D
:1009E000AB4201D1052505E0294DAB4201D10625D9
:1009F00000E007259607360FB5402843254D960899
:100A000045F82600244D2868A0434D6805F480353C
:100A1000B5F5803F00D120431F4D28602D1D28686B
:100A2000A0434D6805F40035B5F5003F00D12043E3
:100A3000194D2D1D28602D1D2868A0434D6805F413
:100A40008015B5F5801F00D12043134D083528606F
:100A50002D1D2868A0434D6805F40015B5F5001F4D
:100A600000D120430C4D0C352860521C0D68D54038
:100A7000002D7FF415AF78BD00100240000400483F
:100A800000080048000C004800100048001400480E
:100A90000018004808000140000401400AB18161CB
:100AA00000E0816270470000014800687047000064
:100AB0002C00002002480068401C01490860704773
:100AC0002C00002010B50024032000F0C1F8002005
:100AD00000F008F808B1012401E000F047F82046D2
:100AE00010BD000070B588B0044600250026002225
:100AF0002146192000F06BF8192000F05BF800BFC8
:100B00001648006E40F40060144908660846006EFE
:100B100000F40060019000BF00BF02A903A800F02C
:100B20001FFC00F057FC05460D48B5FBF0F0461ED3
:100B30000C480D49086040F2E7310B48C16046603F
:100B400000210161816001F05CF820B9064801F0E4
:100B500073F808B070BD0120FBE7000000100240F0
:100B600040420F00002C01401C01002008B500BFCE
:100B70000F48006E40F001000D4908660846006EFF
:100B800000F00100009000BF00BF00BF0846806D6C
:100B900040F0805088650846806D00F080500090DD
:100BA00000BF00BF00220F21901E00F010F808BD0A
:100BB0000010024000BF00F01F02012191404209D5
:100BC000920002F1E022C2F8001100BF70472DE947
:100BD000F05F80460D461646002701F0BDFA074635
:100BE00039462A46334601F00700C0F1070ABAF138
:100BF000040F02D94FF0040A01E0C0F1070AD14600
:100C000000F1040ABAF1070F02D24FF0000A01E026
:100C1000A0F1030AD4464FF0010A0AFA09FAAAF130
:100C2000010A0AEA020A0AFA0CFA4FF0010B0BFA5F
:100C30000CFBABF1010B0BEA030B4AEA0B04214658
:100C4000404601F091FA00F000B830BCBDE8C09F0A
:100C500000BF00F00702064B19684FF6FF0319406A
:100C6000044B0B4343EA0221014B196000BF70475C
:100C70000CED00E00000FA050246B2F5007F2AD133
:100C80001D48006800F4C060B0F5007F32D01A48FB
:100C9000006820F4C06040F40070174B18601748DB
:100CA000006832235843164BB0FBF3F0411C00E0C0
:100CB000491E1148406900F48060B0F5806F01D191
:100CC0000029F5D10C48406900F48060B0F5806FD0
:100CD00010D1032070470848006800F4C060B0F5E8
:100CE000806F07D00448006820F4C06040F4806042
:100CF000014B18600020EDE700700040300000203C
:100D000040420F000248006800F4C06070470000D5
:100D1000007000402DE9F84304460025A8462088CD
:100D200000F40060B0F5006F30D1606E80B1B0F5B6
:100D3000800F13D0B0F5000F03D0B0F5400F15D1E0
:100D400013E0FB48C06840F48030F949C8600FE008
:100D50000021201D01F01CFA054609E0002104F1E4
:100D6000200001F0DBFA054602E001E0012500BFAA
:100D700000BF55B9EE488830006820F44000616E2D
:100D80000843EB49C1F8880000E0A846208800F439
:100D90008050B0F5805F30D1A06E80B1B0F1807F1F
:100DA00013D0B0F1007F03D0B0F1407F15D113E034
:100DB000DF48C06840F48030DD49C8600FE00021A2
:100DC000201D01F0E5F9054609E0002104F12000AD
:100DD00001F0A4FA054602E001E0012500BF00BFD2
:100DE00055B9D3488830006820F04070A16E0843A0
:100DF000CF49C1F8880000E0A846206800F4003020
:100E0000B0F5003F77D14FF00009C948806D01214E
:100E100021EA107078B100BFC548806D40F0805065
:100E2000C34988650846806D00F08050009000BF7F
:100E300000BF4FF00109BF48006840F48070BD4911
:100E40000860FFF731FE074606E0FFF72DFEC01BE6
:100E5000022801D9032505E0B648006800F4807037
:100E60000028F2D000BF85BBB1489030006800F484
:100E70004076D6B1D4F88400B04216D0AC48903059
:100E8000006820F44076AA48D0F8900040F4803002
:100E9000A749C1F890000846D0F8900020F48030AF
:100EA000C1F890000846C0F8906006F00100A8B1B3
:100EB000FFF7FAFD074609E0FFF7F6FDC01B41F218
:100EC0008831884202D9032507E017E0984890301E
:100ED000006800F002000028EED000BF65B9944819
:100EE0009030006820F44070D4F884100843904992
:100EF000C1F8900003E00CE0A84600E0A846B9F174
:100F0000010F05D18A48806D20F08050884988659E
:100F100000BF207800F0010048B1854888300068A3
:100F200020F00300A16B08438149C1F888002078B4
:100F300000F00200022809D17D488830006820F0C6
:100F40000C00E16B08437A49C1F88800207800F072
:100F50000400042809D176488830006820F0300069
:100F6000216C08437249C1F88800207800F008001D
:100F7000082809D16E488830006820F0C000616CF4
:100F800008436B49C1F88800207800F01000102851
:100F900009D167488830006820F44070A16C08438C
:100FA0006349C1F88800207800F02000202809D18A
:100FB0005F488830006820F44060E16C08435C4979
:100FC000C1F88800208800F40070B0F5007F09D1D6
:100FD00057488830006820F44020E16D08435449A8
:100FE000C1F88800208800F48060B0F5806F09D1D6
:100FF0004F488830006820F44010216E08434C4967
:10100000C1F88800207800F04000402809D1484805
:101010008830006820F44050216D08434449C1F8ED
:101020008800207800F08000802809D1404888306E
:10103000006820F44040616D08433D49C1F88800D4
:10104000208800F48070B0F5807F09D1384888305E
:10105000006820F44030A16D08433549C1F888008C
:10106000208800F40050B0F5005F1FD13048883070
:10107000006820F04060E16E08432D498831086027
:10108000E06EB0F1006F06D12948C06840F48010CE
:101090002749C8600AE0E06EB0F1806F06D10121F7
:1010A000201D01F075F8054605B1A846206800F43A
:1010B0000020B0F5002F1FD11D488830006820F0B7
:1010C0004060216F08431A4988310860206FB0F1F1
:1010D000006F06D11648C06840F480101449C860FB
:1010E0000AE0206FB0F1806F06D10121201D01F0D0
:1010F0004FF8054605B1A846206800F48020B0F5F9
:10110000802F24D10A488830006820F04060616F49
:101110000843074988310860606FB0F1006F0BD158
:101120000348C06840F480100149C8600FE0000027
:101130000010024000700040606FB0F1806F06D177
:101140000121201D01F024F8054605B1A84620889C
:1011500000F48040B0F5804F1FD12248006820F095
:101160004050A16F08431F490860A06FB0F1805F35
:1011700007D10221201D01F00BF805466DB1A846EC
:101180000BE0A06FB0F1005F07D1022104F1200055
:1011900001F0C4F8054605B1A846208800F40040D7
:1011A000B0F5004F09D10F48006820F08040E16F92
:1011B00008430C498839C1F88800206800F4803061
:1011C000B0F5803F0AD10748006820F00040D4F80D
:1011D0008010084303498839C1F888004046BDE8BB
:1011E000F8830000881002402DE9F04104460D46C6
:1011F00014B90120BDE8F0815548006800F00700EF
:10120000A8420ED25248006820F0070028435049F7
:1012100008600846006800F00700A84201D00120DD
:10122000E8E7207800F00100002840D0606803283B
:1012300006D14848006800F00070D8B90120D9E70D
:101240006068022806D14348006800F4003088B97D
:101250000120CFE7606830B93E48006800F0020026
:1012600040B90120C6E73B48006800F4806008B937
:101270000120BFE73748806820F003006168084319
:1012800034498860FFF710FC064608E0FFF70CFCC5
:10129000801B41F28831884201D90320AAE72D48FA
:1012A000806800F00C006168B0EB810FEED120780F
:1012B00000F00200022807D12648806820F0F000E4
:1012C000A1680843234988602148006800F00700AE
:1012D000A8420ED91E48006820F0070028431C4988
:1012E00008600846006800F00700A84201D001200D
:1012F00080E7207800F00400042807D115488068B2
:1013000020F4E060E168084312498860207800F02A
:101310000800082808D10F48806820F4605021692F
:1013200040EAC1000B49886000F066F80949896805
:10133000C1F30311084A515C01F01F01C84007497D
:1013400008600020FFF7CEFB0746384652E7000052
:101350000020024000100240245A00083000002003
:101360000F2202600D4A926802F0030242600B4AAB
:10137000926802F0F0028260084A926802F4E06229
:10138000C260064A926802F46052D2080261044ABE
:10139000126802F007020A60704700000010024065
:1013A0000020024001480068704700003000002023
:1013B00000B5FFF7F7FF05498968C1F30221044A28
:1013C000515C01F01F01C84000BD00000010024048
:1013D000345A000800B5FFF7E5FF05498968C1F3F5
:1013E000C221044A515C01F01F01C84000BD000049
:1013F00000100240345A00082DE9F041002400207A
:10140000DFF800C1DCF808C00CF00C01DFF8F4C014
:10141000DCF80CC00CF0030719B10C291ED1012F08
:101420001CD1DFF8E0C0DCF800C00CF0080CBCF107
:10143000000F06D1DFF8CCC0DCF894C0CCF3032455
:1014400005E0DFF8C0C0DCF800C0CCF30314DFF81F
:10145000B8C05CF8244041B9204606E0042901D117
:101460002A4802E0082900D129480C2947D1DFF891
:1014700094C0DCF80CC00CF00305DFF888C0DCF881
:101480000CC0CCF3021C0CF10103012D1FD0022D66
:1014900002D0032D1AD10CE0DFF870C0BCFBF3FCC6
:1014A000DFF86080D8F80C80C8F306280CFB08F23F
:1014B00018E0DFF85CC0BCFBF3FCDFF84880D8F82C
:1014C0000C80C8F306280CFB08F20BE000BFB4FB4D
:1014D000F3FCDFF83080D8F80C80C8F306280CFB4A
:1014E00008F200BF00BFDFF81CC0DCF80CC0CCF372
:1014F000416C0CF1010C4FEA4C06B2FBF6F0BDE872
:10150000F0810000001002403C5A00080024F40062
:1015100000127A002DE9F843044614B90120BDE811
:10152000F883F848806800F00C06F648C06800F0C0
:101530000307207800F01000102875D11EB10C2E82
:1015400074D1012F72D1EF48006800F0020018B189
:10155000A06908B90120E2E7EA48216A006800F0C2
:10156000080020B1E748006800F0F00005E0E54819
:101570009430006800F47060000981421FD9206A2D
:1015800000F07EFF08B10120C9E700BFDD48006818
:1015900040F00800DB4908600846006820F0F000D1
:1015A000216A0843D749086000BF0846406820F414
:1015B0007F40E16940EA0120D24948601EE000BF57
:1015C000D048006840F00800CE490860084600682E
:1015D00020F0F000216A0843CA49086000BF0846AD
:1015E000406820F47F40E16940EA0120C549486035
:1015F000206A00F045FF08B1012090E7FFF7FCFEEC
:10160000C0498968C1F30311BF4A515C01F01F0151
:10161000C840BE4908600020FFF764FA8046B8F170
:10162000000F4ED040467AE74BE0FFE7A06980B359
:10163000B448006840F00100B2490860FFF734FA8E
:10164000054606E0FFF730FA401B022801D90320C7
:1016500065E7AC48006800F002000028F2D000BF47
:10166000A848006840F00800A649086008460068DD
:1016700020F0F000216A0843A249086000BF084634
:10168000406820F47F40E16940EA01209D494860BC
:1016900017E0FFE79B48006820F0010099490860C7
:1016A000FFF702FA054606E0FFF7FEF9401B0228A5
:1016B00001D9032033E79348006800F002000028B6
:1016C000F2D1207800F0010000285CD0082E03D071
:1016D0000C2E0AD1032F08D18A48006800F400308C
:1016E00088B3606878BB012019E700BF6068B0F577
:1016F000803F06D18348006840F48030814908600B
:101700001AE06068B0F5A02F0BD17E48006840F465
:1017100080207C4908600846006840F480300860FA
:101720000AE07848006820F480307649086008466E
:10173000006820F48020086000BF606890B1FFF767
:10174000B3F9054607E01EE0FFF7AEF9401B642839
:1017500001D90320E3E66B48006800F4003000285C
:10176000F2D010E0FFF7A0F9054606E0FFF79CF97C
:10177000401B642801D90320D1E66248006800F4C8
:1017800000300028F2D1207800F00200022852D167
:10179000042E03D00C2E14D1022F12D15948006808
:1017A00000F4806018B1E06808B90120B7E6554838
:1017B000406820F0F850217C40EA016051494860BF
:1017C00039E0E06800B34F48006840F480704D494C
:1017D0000860FFF769F9054606E0FFF765F9401B69
:1017E000022801D903209AE64648006800F4806088
:1017F0000028F2D04348406820F0F850217C40EAAD
:1018000001604049486016E03E48006820F480705E
:101810003C490860FFF748F9054606E0FFF744F940
:10182000401B022801D9032079E63648006800F4FD
:1018300080600028F2D1207800F00800082836D116
:101840006069D0B12F489430006840F001002D4904
:10185000C1F89400FFF728F9054606E0FFF724F9E0
:10186000401B022801D9032059E62648943000681D
:1018700000F002000028F1D019E0224894300068FE
:1018800020F001001F49C1F89400FFF70DF905464B
:1018900006E0FFF709F9401B022801D903203EE6C4
:1018A00018489430006800F002000028F1D1207838
:1018B00000F00400042870D14FF000091148806D39
:1018C00000F0805078B900BF0E48806D40F0805025
:1018D0000C4988650846806D00F08050009000BF7C
:1018E00000BF4FF001090A48006800F48070F0B9A9
:1018F0000748006840F4807005490860FFF7D4F895
:1019000005460EE000100240245A00083000002076
:1019100000700040FFF7C8F8401B022801D90320DF
:10192000FDE57C48006800F480700028F2D000BF1C
:10193000A068012808D17848006840F00100764985
:101940009039C1F8900021E0A06805280FD17248B5
:10195000006840F0040070499039C1F890000846D2
:10196000D0F8900040F00100C1F890000EE06A4805
:10197000006820F0010068499039C1F890000846DD
:10198000D0F8900020F00400C1F8900000BFA068DB
:10199000A0B1FFF789F8054609E02EE0FFF784F8CB
:1019A000401B41F28831884201D90320B7E55A48EB
:1019B000006800F002000028F0D012E0FFF774F891
:1019C000054608E0FFF770F8401B41F28831884275
:1019D00001D90320A3E55048006800F00200002868
:1019E000F0D1B9F1010F07D14B489038806D20F04C
:1019F000805049499039886500BFA06AF0B30C2E29
:101A000074D0A06A022853D143489038006820F06F
:101A10008070414990390860FFF746F8054606E0B6
:101A2000FFF742F8401B022801D9032077E53A4826
:101A30009038006800F000700028F1D1206B401E43
:101A40000101606B41EA0021A06B000941EA4040BE
:101A5000E16A0843A18F0122C2EB510140EA4151E2
:101A60004020005DC2EB500041EA40602A499039B5
:101A7000C8600846006840F0807000E048E00860F8
:101A80000846C06840F08070C860FFF70DF8054652
:101A900006E0FFF709F8401B022801D903203EE5C4
:101AA0001D489038006800F000700028F1D02FE049
:101AB00019489038006820F0807017499039086004
:101AC0000846006800F0205020B90846C06820F0A1
:101AD0000300C86010489038C068104908400E499B
:101AE0009039C860FEF7E0FF054607E00EE0FEF71C
:101AF000DBFF401B022801D9032010E5064890387F
:101B0000006800F000700028F1D101E0012006E536
:101B1000002004E50070004090100240FFFFEEFE40
:101B20002DE9F04104460D460026002700BF20792C
:101B3000012802D10220BDE8F0810120207100BF00
:101B40006079012820D102206071FEF7ADFF0646C2
:101B50000CE0FEF7A9FF801B022807D90420607162
:101B600000BF0020207100BF0320E4E72068406828
:101B700000F001000028ECD020688068E060E06898
:101B800028600120607100E0012700BF0020207163
:101B900000BF3846CFE710B504460CB9012010BD90
:101BA000607920B900202071204600F00FF8022053
:101BB00060712068006840F004002168086001201E
:101BC00060710020A06000BFE9E7000008B5094A85
:101BD000016891420DD100BF0749C96C41F48021D1
:101BE000054AD1641146C96C01F48021009100BFFF
:101BF00000BF08BD00080650001002407047704743
:101C0000704710B504460CB9012010BD94F83D0092
:101C100028B9002084F83C00204600F00CF802208F
:101C200084F83D00211D206800F024FD012084F887
:101C30003D000020E9E7704701460868C06840F0B1
:101C400001000A68D060086880680B4A10400628C6
:101C500005D0086880681040B0F5803F01D10120B0
:101C600000E0002028B90868006840F001000A6818
:101C7000106000207047000007000100704710B599
:101C8000044620680069C0F34000D8B12068C068ED
:101C9000C0F34000B0B16FF002002168086101207C
:101CA00020772068806900F0030018B12046FFF714
:101CB000E5FF05E0204600F0BEF8204600F0BCF845
:101CC0000020207720680069C0F38000D8B1206828
:101CD000C068C0F38000B0B16FF0040021680861F3
:101CE000022020772068806900F4407018B12046F7
:101CF000FFF7C4FF05E0204600F09DF8204600F005
:101D00009BF80020207720680069C0F3C000D8B19C
:101D10002068C068C0F3C000B0B16FF0080021684F
:101D20000861042020772068C06900F0030018B122
:101D30002046FFF7A3FF05E0204600F07CF8204690
:101D400000F07AF80020207720680069C0F30010C6
:101D5000D8B12068C068C0F30010B0B16FF01000B7
:101D600021680861082020772068C06900F440706D
:101D700018B12046FFF782FF05E0204600F05BF82F
:101D8000204600F059F8002020772068006900F014
:101D9000010058B12068C06800F0010030B16FF058
:101DA000010021680861204600F048F820680069B9
:101DB000C0F3C01058B12068C068C0F3C01030B183
:101DC0006FF08000216808612046FFF718FF206847
:101DD0000069C0F3002058B12068C068C0F3C0108B
:101DE00030B16FF48070216808612046FFF706FF6C
:101DF00020680069C0F3801058B12068C068C0F343
:101E0000801030B16FF0400021680861204600F07A
:101E100021F820680069C0F3401058B12068C068FC
:101E2000C0F3401030B16FF02000216808612046F7
:101E3000FFF7E6FE10BD70477047000010B504467E
:101E400003492068884201D1FEF734FE10BD00002E
:101E5000002C0140704710B504460CB9012010BD9C
:101E6000A06900B100E000BF94F8710028B900201B
:101E700084F87000204600F02BF8242084F87100CC
:101E80002068006820F0010021680860204600F00A
:101E90000DFD012800D1E2E7606A10B1204600F094
:101EA0004FFC2068406820F490402168486020681A
:101EB000806820F02A00216888602068006840F06F
:101EC000010021680860204600F0B6FCC7E700006A
:101ED00010B586B00446142101A8FEF72EFA174962
:101EE0002068884228D100BF1548806D40F400303A
:101EF000134988650846806D00F40030009000BFEB
:101F000000BF00BF0846C06C40F00800C864084627
:101F1000C06C00F00800009000BF00BF602001907E
:101F200002200290002003900320049007200590D7
:101F300001A90448FEF7B0FC06B010BD0044004003
:101F400000100240000C00482DE9F84304460D46FD
:101F500016461F464FF0000994F87100202855D10D
:101F600005B116B90120BDE8F88300BF94F87000F0
:101F7000012801D10220F6E7012084F8700000BF9B
:101F800000206067212084F87100FEF78DFD8146F6
:101F9000A4F85060A4F8526021E04B460022802152
:101FA0002046009700F0CBFE08B10320DBE7A068D5
:101FB000B0F5805F0AD1206940B9A846B8F80000A2
:101FC000C0F3080021680885AD1C03E015F8010B7B
:101FD00021680885B4F85200401EA4F85200B4F8F5
:101FE00052000028D9D14B460022402120460097BC
:101FF00000F0A5FE08B10320B5E7202084F87100A9
:1020000000BF002084F8700000BFACE70220AAE700
:1020100000BFFEE700B585B0142206496846FEF70A
:1020200073F90021684602F0E2F80349086005B040
:1020300000BD0000105A00080000002000B587B065
:10204000142102A8FEF779F900BF2648C06C40F0C1
:1020500002002449C8640846C06C00F002000190E8
:1020600000BF00BF00BF0846C06C40F01000C8644D
:102070000846C06C00F01000019000BF00BF00BF18
:102080000846C06C40F00800C8640846C06C00F008
:102090000800019000BF00BF002204211248FEF793
:1020A000FDFC00224FF480711048FEF7F7FC04207D
:1020B000029001200390002004900320059002A9C3
:1020C0000948FEF7E9FB4FF480700290012003906D
:1020D000002004900320059002A90448FEF7DCFBD1
:1020E00007B000BD00100240000400480010004886
:1020F00010B50548054908600846FFF74CFD08B1D2
:10210000FEF7C8FB10BD0000000806509400002038
:1021100010B50D480D4908604FF416504860002175
:102120000A488160C16001610C2141610021816127
:10213000C16101620020054948620846FFF78BFE35
:1021400008B1FEF7A7FB10BD00440040A40000202A
:1021500000BFFEE77047000002480068C0F302209D
:10216000704700000CED00E010B5002807DA0A0700
:10217000140E054A00F00F031B1FD45403E00A0796
:10218000130E024A135410BD18ED00E000E400E005
:102190002DE9F04104460F4600255C48C06800F078
:1021A000030090B15948C06800F0030021688842DC
:1021B00009D1206838B15548C068C0F30210401CEE
:1021C0006168884233D0012531E02068012804D0BD
:1021D000022809D003281AD10DE04C48006800F00D
:1021E000020000B9012514E04848006800F480604E
:1021F00000B901250DE04548006800F4003028B919
:102200004248006800F4802000B9012501E0012562
:1022100000BF00BF5DB9D4E90010401E41EA0010C4
:102220003A49C96821F0730108433849C860002D54
:1022300068D13648006820F0806034490860FEF7B5
:1022400033FC064606E0FEF72FFC801B022801D96E
:10225000032505E02D48006800F000600028F2D159
:1022600000BFCDBB6FB9A0680002E168090940EA70
:10227000414026490969264A11400843234908611B
:1022800020E0012F0FD1A0680002218A0122C2EBB9
:10229000510140EA41501D4909691E4A1140084355
:1022A0001A4908610EE0A0680002217D0122C2EBFC
:1022B000510140EA416015490969174A1140084334
:1022C000124908611148006840F080600F490860B9
:1022D000FEF7EAFB064607E014E0FEF7E5FB801B8D
:1022E000022801D9032505E00848006800F00060D5
:1022F0000028F2D000BF2DB904480069A169084345
:10230000024908612846BDE8F08100000010024043
:10231000FF80FDFFFF809FFFFF80FFF92DE9F04167
:1023200004460F4600255348C06800F0030090B1F2
:102330005048C06800F003002168884209D1206835
:1023400038B14C48C068C0F30210401C6168884234
:1023500033D0012531E02068012804D0022809D0BB
:1023600003281AD10DE04348006800F0020000B9CC
:10237000012514E03F48006800F4806000B90125A1
:102380000DE03C48006800F4003028B93948006886
:1023900000F4802000B9012501E0012500BF00BF45
:1023A0005DB9D4E90010401E41EA00103149C96806
:1023B00021F0730108432F49C860002D56D12D48E4
:1023C000006820F080502B490860FEF76DFB064640
:1023D00006E0FEF769FB801B022801D9032505E012
:1023E0002448006800F000500028F2D100BF75BBFF
:1023F0006FB9A0680002E168090940EA41401D493F
:1024000049691D4A114008431A4948610EE0A06815
:102410000002217C0122C2EB510140EA41601549D2
:102420004969164A11400843124948611148006839
:1024300040F080500F490860FEF736FB064607E083
:10244000FEF732FB801B022802D9032506E00DE0CF
:102450000848006800F000500028F1D000BF2DB9F6
:102460000448406961690843024948612846BDE85B
:10247000F081000000100240FF80FDFFFF80FFF9A7
:10248000F8B5044600262348806D00F0805018B14E
:10249000FEF738FC054616E000BF1E48806D40F090
:1024A00080501C4988650846806D00F0805000907F
:1024B00000BF00BFFEF726FC05461648806D20F0E1
:1024C000805014498865B5F5007F07D1802C10D95C
:1024D000A02C01D902260CE001260AE0802C01D9AB
:1024E000032606E0802C01D1022602E0702C00D1E8
:1024F00001260948006820F00700304306490860BB
:102500000846006800F00700B04201D00120F8BD85
:102510000020FCE7001002400020024000BF012024
:1025200001F054FEFBE7000010B500BF502080F31F
:102530001188BFF34F8FBFF36F8F00BF03F092F886
:1025400018B14FF080500449086000BF002080F3AC
:10255000118800BF10BD000004ED00E000B5B9B067
:10256000442128A8FDF7E9FE142123A8FDF7E5FE84
:10257000882101A8FDF7E1FE1020289001202E906F
:1025800000202F906020309002203290012128A856
:10259000C162016328214163072181630221C16374
:1025A0000164FEF7B7FF08B1FEF774F90F2023901E
:1025B000032024900020259026902790042123A812
:1025C000FEF712FE08B1FEF765F9114801900020F0
:1025D00010904FF080601E90012002900121039125
:1025E000102104910721059102210691079101050F
:1025F000089101A8FEF78EFB08B1FEF74BF94FF4E6
:102600000070FEF739FB08B1FEF744F939B000BDA0
:10261000020004001048006840F470000E49086091
:102620000E48006840F001000C49086000208860F6
:10263000084600680A490840084908608814C860CC
:102640000846006820F48020086000208861C803E4
:10265000014980390860704788ED00E000100240B1
:10266000FFFFF6EA10B50248FFF709FB10BD0000B6
:102670001C01002010B50268294B98420ED0B0F121
:10268000804F0BD0274B984208D0274B984205D05B
:10269000264B984202D0264B984203D122F070027A
:1026A0004B681A431E4B984217D0B0F1804F14D09C
:1026B0001C4B984211D01C4B98420ED01B4B984299
:1026C0000BD01B4B984208D01A4B984205D01A4B9E
:1026D000984202D0194B984203D122F44072CB6841
:1026E0001A4322F080034C6943EA040202608B68BB
:1026F000C3620B6883620A4B98420BD00C4B984222
:1027000008D00C4B984205D00B4B984202D00B4B93
:10271000984201D10B6903630123436110BD00009E
:10272000002C01400004004000080040000C004064
:102730000034014000400140004401400048014095
:1027400090F8241001F0010139B10168496821F4C1
:102750000031826A11430268516090F8241001F040
:102760000201022907D10168496821F48031C26A57
:1027700011430268516090F8241001F0040104290B
:1027800007D10168496821F48021026B1143026876
:10279000516090F8241001F00801082907D1016860
:1027A000496821F40041426B11430268516090F87E
:1027B000241001F01001102907D10168896821F463
:1027C0008051826B11430268916090F8241001F0EF
:1027D0002001202907D10168896821F40051C26BCA
:1027E00011430268916090F8241001F040014029E3
:1027F00013D10168496821F48011026C1143026809
:102800005160016CB1F5801F07D10168496821F45E
:10281000C001426C11430268516090F8241001F02D
:102820008001802907D10168496821F40021826C68
:10283000114302685160704738B5044600250020F6
:102840006067FEF731F905462068006800F008006F
:1028500008280CD16FF07E402B4600224FF4001167
:102860000090204600F06BFA08B1032038BD2068C4
:10287000006800F0040004280CD16FF07E402B4665
:1028800000224FF480010090204600F058FA08B171
:102890000320EBE7202084F8710084F8720000BF69
:1028A000002084F8700000BF00BFDFE72DE9F84F7B
:1028B00004464FF0000910264FF0000B00250020C1
:1028C00000908246F7492068884200D100E000BFAE
:1028D0002169A068084361690843E16940EA010988
:1028E00020680068F049084040EA09002168086053
:1028F0002068406820F44050E1680843216848603F
:10290000D4F81890E7492068884202D0206A40EA4B
:1029100009092068806820F4306040EA09002168D5
:10292000886000BFE1492068884216D1E04800680D
:1029300000F0030030B1012808D0022804D0032899
:1029400008D105E0012607E0022605E0042603E0A1
:10295000082601E0102600BF8CE0D6492068884296
:1029600016D1D348006800F00C0030B1042808D01C
:10297000082804D00C2808D105E0002607E002262C
:1029800005E0042603E0082601E0102600BF71E000
:10299000C9492068884216D1C548006800F0300057
:1029A00030B1102808D0202804D0302808D105E004
:1029B000002607E0022605E0042603E0082601E0E1
:1029C000102600BF56E0BD492068884216D1B8489D
:1029D000006800F0C00030B1402808D0802804D042
:1029E000C02808D105E0002607E0022605E00426FD
:1029F00003E0082601E0102600BF3BE0B049206854
:102A0000884219D1AA48006800F4407048B1B0F576
:102A1000807F0AD0B0F5007F05D0B0F5407F08D1A7
:102A200005E0002607E0022605E0042603E008266C
:102A300001E0102600BF1DE09A492068884219D1A4
:102A40009B48006800F4406048B1B0F5806F0AD040
:102A5000B0F5006F05D0B0F5406F08D105E0002655
:102A600007E0022605E0042603E0082601E0102620
:102A700000BF00BF00BF8B492068884272D1042E7E
:102A800010D003DC3EB1022E13D108E0082E0DD089
:102A9000102E0ED10EE0FEF78BFC82460DE0DFF823
:102AA00024A20AE0FEF7A8FC824606E04FF4004AA2
:102AB00003E000BF0120009000BF00BFBAF1000F8B
:102AC0000AD0606800EB4000504503D860680003FE
:102AD000504502D20120009025E1042E2ED003DCC7
:102AE0003EB1022E51D118E0082E3CD0102E4CD110
:102AF0004CE0FEF75DFC4FF48071A0FB0131606893
:102B000040081F1841F10001D4F804C062460023B8
:102B10003846FDF7C5FB05463BE0D4F804C04FEA54
:102B20005C000021684BC71841EB010862460B4668
:102B300038464146FDF7B4FB05462AE0FEF75CFC4B
:102B40004FF48071A0FB0130616849085F1840F1C3
:102B50000001D4F804C0624600233846FDF7A0FB0C
:102B6000054616E022E0D4F804C04FEA5C000021DC
:102B70004FF40003C71841EB010862460B46384684
:102B80004146FDF78DFB054603E000BF01200090A4
:102B900000BF00BFB5F5407F05D3B5F5801F02D259
:102BA0002068C560BFE001200090BCE0E069B0F59E
:102BB000004F57D1042E28D005DC4EB1012E11D084
:102BC000022E36D118E0082E29D0102E31D131E056
:102BD000FEF7EEFB4000616800EB5100B0FBF1F046
:102BE00085B22AE0FEF7F6FB4000616800EB510079
:102BF000B0FBF1F085B220E03449606801EB500091
:102C00006168B0FBF1F085B217E0FEF7F5FB40001C
:102C1000616800EB5100B0FBF1F085B20DE04FF4BC
:102C20008031606801EB50006168B0FBF1F085B263
:102C300003E000BF0120009000BF00BF102D0ED3A5
:102C4000B5F5803F0BD24FF6F07005EA000BC5F3E7
:102C500042004BEA000B2068C0F80CB063E0012092
:102C6000009060E0042E3CD005DC4EB1012E10D067
:102C7000022E49D12CE0082E3CD0102E44D144E045
:102C8000FEF796FB616800EB5100B0FBF1F085B2F6
:102C90003EE0FEF79FFB616800EB5100B0FBF1F0F6
:102CA00085B235E000800040F369FFEF0038014055
:102CB000881002400044004000480040004C0040A2
:102CC000005000400024F400000024F40048E80113
:102CD0001849606801EB50006168B0FBF1F085B203
:102CE00016E0FEF789FB616800EB5100B0FBF1F0E4
:102CF00085B20DE04FF40041606801EB500061685F
:102D0000B0FBF1F085B203E000BF0120009000BFEE
:102D100000BF102D05D3B5F5803F02D22068C560F5
:102D200001E001200090002020666066009800F01D
:102D300003B800000024F40018BCBDE8E08F2DE9C2
:102D4000F04104460D4617469846069E21E0701C49
:102D5000F8B12EB1FDF7A8FEA0EB0800B04218D9DB
:102D60002068006820F4D0702168086020688068BE
:102D700020F0010021688860202084F8710084F828
:102D8000720000BF002084F8700000BF0320BDE87F
:102D9000F0812068C0692840A84201D1012000E0EC
:102DA0000020B842D3D00020F1E700000FB410B5E6
:102DB0009EB021A801906E2102A8019B209A00F0EC
:102DC0002DF80020019002A8FDF7CEFA84B264230A
:102DD000224602A90348FFF7B7F81EB010BC5DF801
:102DE00014FB0000A400002000BFFEE70FB41CB5D8
:102DF0000246002007AC00290BD0491ECDE9002176
:102E0000054B6A462146069800F0F4F8009A002126
:102E100011701CBC5DF814FB293700087CB5044612
:102E200000201D46164600290BD0491ECDE9004161
:102E3000044B6A462946304600F0DCF8009A00212F
:102E400011707CBD2937000802E008C8121F08C1B4
:102E5000002AFAD170477047002001E001C1121F1B
:102E6000002AFBD1704700002DE9FF5F82B00021EE
:102E7000DDE90430020DDDF840B0034318D044F61C
:102E80001050A2F2FF3242431514119801281FD0AE
:102E9000A5EB0B00401C5FEA000A4FF000064E4F06
:102EA000DFF83891B046504615D5CAF1000413E05A
:102EB000119801244AA3012801D16FEA0B0102985D
:102EC000119AC0E90031C0E9024206B000F08EB8A4
:102ED000CBF10000DFE704460021404A491842EBED
:102EE0000450CDE9001012E0E00707D032463B461F
:102EF00040464946FDF736FB8046894632463B460A
:102F000010461946FDF72EFB06460F466410002CAE
:102F1000EAD1DDE90401DDE90023BAF1000F06DAA8
:102F2000FDF720FB42464B46FDF71CFB05E0FDF795
:102F30008EFB42464B46FDF78AFB04460E460022B6
:102F4000284BFDF70BFC03D84FF0FF30014607E09C
:102F50000022254B20463146FDF755FAFDF7E6FBEA
:102F6000102409E0002C0ADB0A220023FDF798F95F
:102F7000039B30321A55641E50EA0102F2D1641CE0
:102F8000039AC4F111031444119A012A03D00122B7
:102F900008430DD10AE0084304D000204FF0110B84
:102FA000119072E7A3EB0B056D1E0DE05B4504DD90
:102FB0004FF0000205F1010504E003DA4FF00002D2
:102FC000A5F10105002AECD002981199C0E902315F
:102FD000C0E9004579E70000000014400000F03F20
:102FE000300000000000F0430000E03F30BCBDE8CE
:102FF000C09F00002DE9FF4F95B09B4689460646CD
:1030000000250FE2252877D100242746F84A012120
:10301000059400E0044316F8013F203B01FA03F059
:103020001042F7D130782A2811D06FF02F03307872
:10303000A0F13002092A16D8059A44F0020402EBE6
:10304000820203EB42021044761C0590EFE759F828
:10305000042B0592002A03DA504244F400540590F0
:1030600044F00204761C30782E2816D116F8010F91
:1030700044F004042A280DD06FF02F023078A0F11C
:103080003003092B09D807EB870302EB4303C7186A
:10309000761CF3E759F8047B761C30786C280FD047
:1030A00006DC4C2817D068280DD06A2814D104E01B
:1030B000742810D07A280FD10DE044F400140AE0EF
:1030C00044F4801401E044F440147278824202D146
:1030D00004F58014761C761C307866280BD013DC3F
:1030E000582877D009DC002875D04528F6D0462826
:1030F000F4D047281AD19DE118E0632835D0642820
:1031000079D0652812D195E1702873D008DC672842
:10311000F1D069286FD06E280DD06F2806D1B5E0A8
:1031200073282CD0752875D0782874D05A461799F2
:1031300090476D1C75E1C4F30250022809D00328A2
:103140000DD0D9F8001004280DD00D6009F1040944
:1031500067E1D9F80010EA17C1E90052F6E7D9F89B
:1031600000100D80F2E70D70F0E719F8041B8DF8E0
:10317000001000208DF80100EA46012003E059F814
:1031800004AB4FF0FF3061074FF0000102D40DE0B7
:1031900008F101018846B9420FDA8045F8DB1AF8D8
:1031A00008100029F4D108E008F1010188468142A5
:1031B000FADB1AF808100029F6D105985B46A0EB57
:1031C000080721463846179A00F097FA284400EB82
:1031D000080507E04DE029E10DE01AF8010B5A4619
:1031E00017999047B8F10108F7D25B462146384657
:1031F000179A13E142E00A220092C4F302524FF000
:10320000000A022A08D059F804CB032A4FEAEC71CD
:103210000AD00DE029E02AE009F1070121F00702B8
:10322000F2E802C1914609E00FFA8CFC4FEAEC711A
:10323000042A03D14FFA8CFC4FEAEC71002907DA1B
:103240000A460021DCF1000C61EB02012D2202E0B4
:10325000220504D52B228DF80420012203E0E20789
:1032600001D02022F7E7904659E00A2102E010221F
:103270000DE010214FF0000A00910BE010224FF0FA
:10328000000A44F004040827009203E008224FF0EB
:10329000000A0092C4F30252022A05D059F804CB66
:1032A0000021032A08D009E009F1070121F00702F3
:1032B000F2E802C1914605E01FFA8CFC042A01D114
:1032C0000CF0FF0C4FF00008220728D5702806D01C
:1032D000009B83F0100353EA0A0305D00EE040225E
:1032E0008DF80420012208E05CEA010206D03022B9
:1032F0008DF804208DF8050002229046009B83F093
:10330000080353EA0A030AD15CEA010201D1620709
:1033100005D530228DF804204FF001087F1E582873
:1033200004D034A003900EA802900DE036A0F9E777
:1033300053466046009AFCF7B3FF84460398825CCC
:103340000298401E029002705CEA0100F0D10298DF
:1033500006A9081A00F1200A600702D524F4803477
:1033600000E00127574502DDA7EB0A0000E000203E
:1033700000EB0A01009005984144401A0590E003D3
:1033800006D45B462146179A059800F0B6F9054425
:10339000002706E001A85A46C05D179990476D1CAA
:1033A0007F1C4745F6DBE0030CD55B462146179AA8
:1033B000059800F0A2F9054404E030205A46179918
:1033C00090476D1C0099481E00900029F5DC08E02C
:1033D000029802995A460078491C02911799904721
:1033E0006D1CBAF10001AAF1010AF1DC65E10000EF
:1033F00009280100303132333435363738396162CB
:10340000636465660000000030313233343536378E
:1034100038394142434445460000000000F05BF962
:103420000544761C307800287FF4ECAD19B02846AE
:1034300000F04EB9620700D4062709F1070222F016
:10344000070CFCE80223E14603F000485FEA080CA1
:1034500002D00FF2702C0DE05FEA045C02D50FF28F
:10346000682C07E05FEAC47C02D00FF2602C01E018
:10347000AFF2700C4FF0FF3823F00043CDF850C08E
:1034800065280CD006DC452809D046281DD04728E1
:103490003DD13DE0662818D067287ED138E0002174
:1034A000112F01DB112000E0781CCDE9000106A9F5
:1034B0000EA8FFF7D9FCDDE90F010E9A0391002158
:1034C000009207F1010A04914DE04FF0004000978F
:1034D000CDE9011006A90EA8FFF7C6FCDDE90F0231
:1034E00003920E9B11990022DDF80CA00093049228
:1034F00011B9791C00EB010AB7EB0A0004D4C0F142
:10350000FF3007F1010A0490AAEB0700019044E0A4
:10351000012F00DA01270021112F01DD112000E029
:103520003846CDE9000106A90EA8FFF79DFCDDE9AC
:103530000F010E9A0391002104910092BA462107CF
:103540000CD40399514500DA8A46BAF1010F05DD22
:10355000009AAAF10101515C302908D0B84202DA80
:1035600010F1040F06DA0121CDE9011015E0AAF1EE
:103570000101E9E7002805DC049901440491AAEB64
:10358000000102E0411C514500DD8A460499401AC1
:10359000401C01904FF000400290200704D4019895
:1035A000504501DBCDF8048000208DF84F000298D3
:1035B0000DF14F07B0F1004F25D02B200E9002984F
:1035C0004FF0020800280CDA404202902D200E90A5
:1035D00007E00A210298FCF7E1FE3031029007F87B
:1035E000011DB8F10001A8F10108F2DC02980028E1
:1035F000EFD1791E0E980870307800F0200040F06E
:10360000450007F8020D12A8C01B00F10708149826
:10361000007800B1012000EB0A01019801EBE07194
:1036200005984144401A401E0590E00306D45B46CD
:103630002146179A059800F060F805441498007820
:1036400018B15A46179990476D1CE00324D55B4684
:103650002146179A059800F050F805441CE004989C
:10366000002807DBDDE90301884203DD0098405CA8
:10367000179901E0179930205A469047049805F1B0
:103680000105401C04900198401E019004D12E2099
:103690005A46179990476D1CBAF10001AAF1010A28
:1036A000DDDC05E017F8010B5A46179990476D1CB1
:1036B000B8F10001A8F10108F4DC5B462146179A35
:1036C0000598ABE62D0000002B0000002000000054
:1036D00030BCBDE8C08F2DE9F041044600251E46F0
:1036E0001746880404D405E039462020B0476D1CF5
:1036F000641EF9D52846BDE8F0812DE9F041044665
:1037000000251E469046C80301D5302700E020273B
:10371000880404D505E041463846B0476D1C641E58
:10372000F9D52846BDE8F0814A68002A06D00A6823
:10373000531C0B6010704868401E486070470000C2
:10374000DFED131AF0EE610A002010E000EB4001FB
:1037500001EBC0020F4901EB8201096A01EE901AE8
:10376000F8EEE11A71EEA01AF0EE610A401C03288F
:10377000ECDB08480C38408801EE900AF8EE611A3C
:1037800080EEA11ADFED041A81EE210A70470000D5
:1037900000000000440200200000C8420020002178
:1037A00009E001EB410202EBC1030D4A02EB830287
:1037B000D2691044491C0329F3DB09490C394988B3
:1037C00001EE101AF8EE411A01EE100AB8EEC11A15
:1037D000C1EE210A9FED031A80EE810A70470000B6
:1037E000440200200000C8420020002109E001EB53
:1037F000410202EBC1030D4A02EB8302D26810447E
:10380000491C0329F3DB09490C39498801EE101AD8
:10381000F8EE411A01EE100AB8EEC11AC1EE210A03
:103820009FED031A80EE810A7047000044020020D9
:103830000000C842C4B04AF210464FF47A70704398
:103840004FF47A71B0FBF1F764212BA8FCF775FDFA
:103850001AAC6B486BA2642103682BA8FFF7C6FA69
:1038600000231A462BA97448006801F0E3FC10E01D
:1038700001F0F2FE0546BD4201DB00F0BDF9002279
:103880002BA96D48006801F0A9FD10B12BA8FFF726
:103890008DFA6A4800680028EAD12B46684A6421FC
:1038A0002BA8FFF7A3FA00231A462BA96248006849
:1038B00001F0C0FC98E000222BA95F48006801F0ED
:1038C0008DFD10B12BA8FFF771FA002221465D484B
:1038D000006801F083FD0128ECD149480068401ED2
:1038E00047490860642101A8FCF727FD56A264211E
:1038F00001A8FFF77BFA00231A4601A94E48006889
:1039000001F098FC206800EB400202EBC002534833
:10391000A16840F8221094ED030A206800EB4001F2
:1039200001EBC0014D4800EB810080ED010A2068E9
:1039300000EB400202EBC002484800EB8200216924
:103940008160206800EB400202EBC002434800EBBC
:1039500082006169C16094ED060A206800EB4001B5
:1039600001EBC0013D4800EB810080ED040A2068B6
:1039700000EB400202EBC002384800EB8200E16934
:103980004161206800EB400202EBC002334800EBCB
:103990008200216A8161206800EB400202EBC002D4
:1039A0002E4800EB8200616AC161206800EB400292
:1039B00002EBC002294800EB8200A16A0162206884
:1039C00000EB400202EBC002244800EB8200E16AF7
:1039D0004162206800EB400202EBC0021F4800EB8E
:1039E0008200216B816200BF0548006800287FF4D7
:1039F00062AF1BA0FFF7DAF900F030F900BFFEE775
:103A0000080000205468652062616E6B2069732095
:103A10006F70656E2E2025642054656C6C65727322
:103A20002073686F77656420757020666F722077E9
:103A30006F726B0D0A0000002000002018000020AB
:103A4000785A000824000020476F742061207465B4
:103A50006C6C657220737461740D0A00440200205E
:103A60005468652062616E6B2068617320636C6FBF
:103A70007365642E20416C6C2054656C6C657273A8
:103A8000206861766520676F6E6520686F6D650DD3
:103A90000A00000070B58CB005460E4605EB051017
:103AA0000F4901EB8004256001A801F00BF82C22DE
:103AB00001A904F10800FCF727FC1022314604F1AB
:103AC0003400FCF745FC201D022123464A02CDE9C3
:103AD000001004F13401034801F07AFD0CB070BD10
:103AE0006C010020E93A0008F0B5B7B0064634464C
:103AF0000020339034903590369033AD35E000227D
:103B000029462E48006801F069FC012827D164216C
:103B100001A8FCF712FC04F1340329A2642101A8D6
:103B2000FFF764F900231A4601A92A48006801F04A
:103B300081FB01F091FDE86004F1080000F0A7FFAF
:103B40002F89294604F1080000F08AFF394604F164
:103B5000080000F094FF384601F0D8F805E0206B2B
:103B600018B904F1080000F0A5FF1B480068002800
:103B7000C5D11248006800F0D7FF0028BFD16421EA
:103B80001AA8FCF7DAFB04F1340314A264211AA882
:103B9000FFF72CF900231A461AA90E48006801F015
:103BA00049FB00231A4621461248006801F042FBF7
:103BB000606801F0D9F837B0F0BD00001C000020AB
:103BC00025733A20476F7420637573746F6D657247
:103BD0000D0A0000200000201800002025733A2064
:103BE0004C656176696E67207468652062616E6BF2
:103BF0000D0A0000240000200020014908607047E1
:103C0000180000207FB50446114800680090104855
:103C10000068401C0E4908604FF44871322000F0E3
:103C200029F90646B0B2ADF8080001F015FD019083
:103C30000848006800F078FF451C07480088A84243
:103C400001DA05490D809DE80F0084E80F007FBD73
:103C5000040000201C0000203802002010B52DEDCB
:103C6000028B2E4841882EA0FFF7A0F800240CE01C
:103C700004EB440000EBC40128480C3050F821202C
:103C8000611C36A0FFF792F8641C032CF0DBFFF7F1
:103C900057FD10EE104A2046FCF76DFB41EC180B67
:103CA00053EC182B3A48FFF781F8FFF79DFD10EE13
:103CB000104A2046FCF75FFB41EC180B53EC182B25
:103CC0003448FFF773F8FFF769FD10EE104A2046FD
:103CD000FCF751FB41EC180B53EC182B2EA0FFF70F
:103CE00065F800F025FA0446214639A0FFF75EF892
:103CF00000F038FA044621464348FFF757F800F031
:103D00004BFA0446214641A0FFF750F803480188CA
:103D10004CA0FFF74BF8BDEC028B10BD3802002021
:103D200054686520746F74616C206E756D62657285
:103D3000206F6620637573746F6D65727320736591
:103D40007276656420647572696E67207468652098
:103D50006461793A0925640D0A0000005468652001
:103D60006E756D626572206F6620637573746F6D1A
:103D7000657273207365727665642062792054657C
:103D80006C6C65722025643A092025640D0A0000D8
:103D9000045B00084C5B000854686520617665721E
:103DA0006167652074696D652074656C6C657273FC
:103DB000207761697420666F7220637573746F6D0C
:103DC0006572733A09256C66206D696E0D0A0000F4
:103DD000546865206D6178696D756D2063757374C5
:103DE0006F6D657220776169742074696D652069F3
:103DF0006E207468652071756575653A09256420C3
:103E00006D696E0D0A000000C05A000854686520F4
:103E10006D6178696D756D207472616E7361637424
:103E2000696F6E2074696D6520666F7220746865B5
:103E30002074656C6C6572733A092564206D696E37
:103E40000D0A0000546865206D6178696D756D20FC
:103E50006465707468206F6620746865206375738C
:103E6000746F6D65722071756575653A0925640D0D
:103E70000A000000F8B504460D4669460548FDF7FE
:103E80004FFE681C0099B1FBF0F200FB12100619FE
:103E90003046F8BD9400002030B5A5B001A800F070
:103EA000A3F801ACBDF8040045490880BDF8060040
:103EB000488002984860039888600498C8609DED27
:103EC000050A084680ED040A61694161A1698161C2
:103ED00094ED070A80ED070A216A0162616A416276
:103EE000A16A8162E16AC162216B0163616B416316
:103EF000A16B816394ED0F0A80ED0F0A216C0164C0
:103F0000616C416494ED120A80ED120AE16CC164A7
:103F1000216D0165616D4165A16D8165E16DC165D1
:103F2000216E0166616E416694ED1A0A80ED1A0AEF
:103F3000E16EC166216F016794ED1D0A80ED1D0AD7
:103F4000A16F8167E16FC167D4F88010C0F880105D
:103F5000D4F88410C0F88410D4F88810C0F8881001
:103F6000D4F88C10C0F88C1001201649086000228B
:103F70001021142001F0E6F81349086000226421A2
:103F80000F2001F0DFF81149086000222C210520E4
:103F900001F0D8F80E4908600EA0114948600D469E
:103FA000084600680221CDE9001028462B464FF450
:103FB000806241680B4801F00BFB25B030BD00006A
:103FC00038020020180000201C00002020000020E3
:103FD0002400002042616E6B5461736B000000008E
:103FE000100000203538000810B5A4B004460020A9
:103FF000ADF80000ADF802000190029090226946F1
:104000002046FCF781F924B010BD00002DE9FC47E3
:1040100004460D46642004FB00F605FB00F7A7EB01
:10402000060800200C4908600C484660C0F808806B
:104030000BA00A49C8608946084600680221CDE9FC
:10404000001048464B464FF48062C168074801F0B3
:10405000BFFA00F00DB80000040000205C01002051
:1040600043434D5F7461736B000000004D490008CD
:104070000CBCBDE8F0870000A4B0FCF723FDFEF700
:104080006DFAFDF7DBFFFEF733F8FEF741F8042188
:104090000120FFF7BBFFFFF7FFFE00201249086079
:1040A00084216846FCF749F9002412E00E480368B1
:1040B0005B1C0EA20C2121A8FEF798FE21A90A483C
:1040C0000068FFF7E7FC08480068401C06490860E4
:1040D000641C032CEADB08A0FEF768FEFDF79AFFDC
:1040E00000F080F800BFFEE70800002054656C6C0B
:1040F00065725F256400000053797374656D2069F3
:104100006E697469616C697A65642C20737461727C
:1041100074696E67204672656552544F530D0A00EC
:1041200001460020842901D0CA1C104470470000B9
:1041300010B50022002100200BE000EB400303EB50
:10414000C004074B03EB84039969914200DD0A46E2
:10415000401C0328F1DB642092FBF0F010BD00004E
:104160004402002010B50022002100200BE000EBEB
:10417000400303EBC004074B03EB840359699142EE
:1041800000DD0A46401C0328F1DB642092FBF0F0BE
:1041900010BD00004402002010B5002200210020C4
:1041A0000BE000EB400303EBC004074B03EB84037D
:1041B0009968914200DD0A46401C0328F1DB642027
:1041C00092FBF0F010BD00004402002070B50446E0
:1041D00025460DB1294600E00121084600F096FD74
:1041E000002070BD10B500F067FE002010BDFEB5C8
:1041F00004460D46B4F90800FFF792FF064602A8F0
:10420000CDE90060238A9AB22B46D4E9001001F070
:10421000DFF9012801D00020FEBD0298FCE7000074
:104220002DE9F04105460E461C4807681C48006809
:10423000001D00F065FC50B91948006890F82C107A
:104240000120884017490968814316480160681CAD
:1042500038B936B112480168091D134800F0A3FCB3
:104260001AE07C190E4800684460BC4207D20C4832
:104270000168091D0D48006800F07BFC0CE008484F
:104280000168091D0A48006800F073FC09480068CD
:10429000844201D207480460BDE8F0814800002054
:1042A000340000204C000020A40300203C0000202B
:1042B000380000206400002010B5044600F080FCA7
:1042C00023480068401C224908602248006840B921
:1042D000204804600846006801280DD100F084F9E8
:1042E0000AE01D48006838B91A480068C06AE16AE7
:1042F000884201D81748046018480068401C1749D4
:10430000086094F82C10012088401549096808437A
:1043100013490860E16A01EB8101124A02EB810056
:10432000211D00F040FC00F075FC0B48006868B1EE
:1043300008480068C06AE16A884207D24FF080509E
:1043400009490860BFF34F8FBFF36F8F10BD0000A6
:1043500044000020340000205000002060000020B5
:104360004C000020C802002004ED00E010B516E06B
:1043700000F026FC0C48C068C468201D00F0C0FB9B
:104380000A480068401E0949086009480068401E44
:104390000749086000F03EFC204600F05EF8044843
:1043A00000680028E4D110BD9003002044000020E4
:1043B0004000002070B504460D46206C70B1216CA1
:1043C000E0680844E0606168E068884201D32068E2
:1043D000E0602846226CE168FBF796FF70BD2DE98E
:1043E000F04104460F4615464FF00008A66B206CBE
:1043F00040B9206860BB606801F0D8F980460020B1
:10440000606025E07DB93946226CA068FBF77CFF2F
:10441000216CA0680844A060D4E90110884217D339
:104420002068A06014E03946226CE068FBF76CFF5E
:10443000216CE068401AE0602168E068884203D29D
:10444000216C6068401AE060022D01D106B1761E31
:10445000701CA0634046BDE8F08110B50446206B97
:1044600000F0F6FB204600F0F3FB10BD30B54FF432
:104470000043174800F007042CB1C01D20F00700CE
:10448000134C041B1B1B0246124C22600024114DCE
:104490006C60D018083820F007000F4C2060002412
:1044A0000D4D2D686C600C4D2D682C601146441A22
:1044B0004C60094C24680C60084D4C682C60084D19
:1044C0004C682C604FF00044064D2C6030BD00005D
:1044D000B803002070000020780000208000002039
:1044E0007C0000208400002000BFFFF73FFF06484B
:1044F00000680128F9D94FF0805004490860BFF3E3
:104500004F8FBFF36F8FF0E7C802002004ED00E08B
:104510002DE9F04106460D4617469846069C0DB912
:10452000246000E02760E66325640121204600F056
:1045300035FEBDE8F0812DE9FF5F81460F469246CA
:10454000DDE90E6B109CAAF10100216B01EB8008E4
:1045500028F0070808F0070008B9012000E0002053
:1045600050B900BF502080F31188BFF34F8FBFF3C5
:104570006F8F00BF00BFFEE7002507E0795D04F103
:1045800034004155785D00B902E06D1C102DF5D363
:1045900000BF002143200155072E00D30626E66206
:1045A00066640020A064201D00F0E0FA04F1180009
:1045B00000F0DCFA2461C6F10700A061646200200B
:1045C000E06484F8500049464046039A00F0A8F998
:1045D0002060BBF1000F01D0CBF8004000F000B824
:1045E0003FBCBDE8C09F000010B5002407E004EB0D
:1045F00084010F4A02EB810000F0ABFA641C072C27
:10460000F5D30C4800F0A5FA0B4800F0A2FA0B48CD
:1046100000F09FFA0A4800F09CFA0A4800F099FA64
:1046200004480949086004480849086010BD0000B2
:10463000C802002054030020680300207C030020EF
:1046400090030020A4030020380000203C0000203C
:1046500010B50146164800E0006803688B42FBD3A2
:104660000246436813448B4204D143684C68234498
:10467000436001460A464B6813440468A34211D1C3
:104680000C4C03682468A34208D04B680468646833
:1046900023444B6003681B680B6005E0054B1B68F7
:1046A0000B6001E003680B60884200D0016010BD20
:1046B000700000207800002070B5054600F080FAF8
:1046C000A86B08B9012400E0002400F0A3FA2046FA
:1046D00070BD70B5054600F073FAA86BE96B8842AF
:1046E00001D1012400E0002400F094FA204670BDBE
:1046F0000A490968096809B9012100E0002121B1CE
:104700004FF0FF31064A116006E004490968C968A4
:10471000C868034A416811607047000038000020F3
:10472000640000200E480068401C08B9012000E029
:10473000002050B900BF502080F31188BFF34F8F85
:10474000BFF36F8F00BF00BFFEE700BF502080F3B4
:104750001188BFF34F8FBFF36F8F00BF00BFFEE71D
:104760008800002070B5044600F02AFA94F94550FC
:1047700010E0606A08B9012000E0002038B904F1B7
:10478000240001F077F818B100F074FB00E003E0BA
:10479000681E45B2002DECDC00BFFF2084F8450008
:1047A00000F038FA00F00CFA94F9445010E0206957
:1047B00008B9012000E0002048B904F1100001F020
:1047C00059F808B100F056FB681E45B200E001E060
:1047D000002DECDC00BFFF2084F8440000F01AFA42
:1047E00070BD00002DE9F04104464FF0000800F0D4
:1047F000A7FB4648006808B9FFF738FE4448006840
:10480000204000286BD1D4B1083404F00700B0B1C7
:1048100004F00700C0F10800044404F0070008B9E0
:10482000012000E0002050B900BF502080F3118823
:10483000BFF34F8FBFF36F8F00BF00BFFEE7002CA9
:104840004DD034480068844249D8334E304605681C
:1048500001E02E462D686868A04202D22868002830
:10486000F7D12A480068854239D0306800F108083D
:10487000286830606868001B102819D92F1907F0C4
:10488000070008B9012000E0002050B900BF502007
:1048900080F31188BFF34F8FBFF36F8F00BF00BF4E
:1048A000FEE76868001B78606C603846FFF7D0FE52
:1048B000184968680968081A1649086008460068B7
:1048C00016490968884203D21248006813490860F3
:1048D0000F4968680968084368600020286001F093
:1048E00015F808F0070008B9012000E0002050B9D1
:1048F00000BF502080F31188BFF34F8FBFF36F8F3D
:1049000000BF00BFFEE74046BDE8F0817800002010
:10491000840000207C000020700000208000002027
:10492000001F4FF080730360001F21F0010303603C
:10493000001F054B036014380260001F6FF0020374
:104940000360203870470000254700082DE9F04734
:10495000B8B0044631E026467768D6F80880D6F825
:104960000C9041463846FFF785FA0546642106A8B3
:10497000FBF7E3FC4B461EA2642106A80095FEF758
:1049800035FA00231A4606A92348006800F052FCB5
:10499000284600F0BBF902A8FFF734F90DF1080A28
:1049A00000231A4651461D48006800F043FC1C488D
:1049B0004088401C1A49488000BF1A4800680028F7
:1049C000C9D164211FA8FBF7B8FC17A264211FA856
:1049D000FEF70CFA00231A461FA90F48006800F0E2
:1049E00029FC1E49086800F0BFF938B0BDE8F0871F
:1049F000257320776174696E6720666F72206E651B
:104A0000787420637573746F6D657220666F7220A1
:104A100025640D0A00000000200000201C0000207A
:104A2000380200201800002042616E6B206973205C
:104A3000636C6F73696E672E204E6F206D6F7265A9
:104A400020637573746F6D65727320616C6C6F7722
:104A5000656420696E2E0D0A000000005C010020D4
:104A600010B54C68CB681A1B8369934200DA8261E7
:104A700003685B1C0360036A1344036210BDC268D1
:104A80000A44C26082688A4200DA8160704770B569
:104A900004460025A06A28B10020A06200F0DCFDD9
:104AA000616A451AE0692844E0616069A84200DA59
:104AB000656170BD10B504460120A06200F0CCFD18
:104AC000606210BD10B58CB004469FED0C0A8DEDF0
:104AD000020A9FED0A0A8DED050A00200390069058
:104AE000079001900890099004900B900A902C2256
:104AF00001A92046FBF708FC0CB010BD0000000027
:104B000001460A69D1E901309860D1E90103586092
:104B10005068884201D188685060002008611068A0
:104B2000401E10601068704770B5044654B900BF4D
:104B3000502080F31188BFF34F8FBFF36F8F00BFFA
:104B400000BFFEE700F03CF8A56B00F063F82846D4
:104B500070BD00F1080141604FF0FF31816000F14C
:104B60000801C160016100210160704700210161FD
:104B7000704710B502460B685C1C0CB9106907E061
:104B800002F1080000E04068446824689C42FAD9B9
:104B900044684C604C68A160886041600A61146898
:104BA000641C146010BD42684A6093688B6093680F
:104BB00059609160086103685B1C036070470000E6
:104BC00000BF502080F31188BFF34F8FBFF36F8F6A
:104BD00000BF0E480068401C0C4908600846006889
:104BE000012812D10A480068C0B208B9012000E0CB
:104BF000002050B900BF502080F31188BFF34F8FC1
:104C0000BFF36F8F00BF00BFFEE770478800002032
:104C100004ED00E00D48006850B900BF502080F35B
:104C20001188BFF34F8FBFF36F8F00BF00BFFEE748
:104C300006480068401E054908600846006820B91B
:104C4000002080F3118800BF00BF7047880000205B
:104C500070B506463546002E3FD0083D2C461F490C
:104C600060680968084008B1012000E0002050B9E0
:104C700000BF502080F31188BFF34F8FBFF36F8FB9
:104C800000BF00BFFEE7206808B9012000E0002057
:104C900050B900BF502080F31188BFF34F8FBFF38E
:104CA0006F8F00BF00BFFEE70C49606809680840CD
:104CB00098B1206888B909496068096888436060CC
:104CC00000F03EF906496068096808440449086034
:104CD0002046FFF7BDFC00F019FE70BD84000020E7
:104CE0007C00002000204FF0E02108618861064828
:104CF00000684FF47A71B0FBF1F0401E4FF0E021F4
:104D000048610720086170473000002070B50446F4
:104D10000025D4B11248006808B9012000E0002045
:104D200050B900BF502080F31188BFF34F8FBFF3FD
:104D30006F8F00BF00BFFEE700F002F900212046A0
:104D4000FFF76EFA00F0E2FD05463DB94FF08050E6
:104D500004490860BFF34F8FBFF36F8F70BD000031
:104D60006C00002004ED00E070B50546FFF728FF59
:104D700015B93048006800E028460446201DFFF7BA
:104D8000BFFE78B9E06A00EB80002B4951F82000A3
:104D900040B994F82C1001208840284909688143C3
:104DA00026480160A06A18B104F11800FFF7A8FEB8
:104DB00023480068401C224908601E48006884425D
:104DC00009D1211D1F48FFF7EEFE1F480068401C57
:104DD0001D49086009E01D480068401E1B49086025
:104DE0002046FFF73AFBFFF783FCFFF713FF184855
:104DF0000068E8B10F480068844219D1154800687E
:104E000008B9012000E0002050B900BF502080F315
:104E10001188BFF34F8FBFF36F8F00BF00BFFEE756
:104E20004FF080500C490860BFF34F8FBFF36F8F76
:104E300070BD000034000020C80200204C0000209B
:104E4000600000209003002040000020440000206B
:104E5000500000206C00002004ED00E003490968C8
:104E60000160034909684160704700005C00002050
:104E700048000020012001490860704758000020C8
:104E800070B504460D4654B900BF502080F3118818
:104E9000BFF34F8FBFF36F8F00BF00BFFEE7054822
:104EA000016818312046FFF764FE01212846FFF70C
:104EB000B7F970BD340000201CB51A4800210B461C
:104EC0008022CDE9001018A1194800F081FB0446AA
:104ED000012C15D100BF502080F31188BFF34F8FF4
:104EE000BFF36F8F00BF4FF0FF3012490860012001
:104EF0001149086000201149086000F06FF810E0C7
:104F0000601C08B1012000E0002050B900BF502013
:104F100080F31188BFF34F8FBFF36F8F00BF00BFC7
:104F2000FEE71CBD6800002049444C45000000001D
:104F3000E9440008640000205000002048000020E0
:104F400002480068401C0149086070476C0000205E
:104F50001D48006818B101201C49086032E000209B
:104F60001A4908601A480068B0FA80F0C0F11F01C1
:104F700001EB8100174A52F8200008B1012000E03F
:104F8000002050B900BF502080F31188BFF34F8F2D
:104F9000BFF36F8F00BF00BFFEE701EB81020D4B37
:104FA00003EB820042685268426000F108024368E5
:104FB000934202D14268526842604268D268064B0E
:104FC0001A6000BF704700006C00002058000020ED
:104FD0004C000020C8020020340000201CB55248BC
:104FE00000685249884201D0012000E0002050B9F9
:104FF00000BF502080F31188BFF34F8FBFF36F8F36
:1050000000BF00BFFEE7484800684849491E884283
:1050100001D0012000E0002050B900BF502080F3F3
:105020001188BFF34F8FBFF36F8F00BF00BFFEE744
:105030003F49084600780190FF200A461070084654
:10504000007800909DF8000000F0F0009DF800202E
:10505000904201D1012000E0002050B900BF502053
:1050600080F31188BFF34F8FBFF36F8F00BF00BF76
:10507000FEE79DF8000000F050002E4A1070072057
:105080002D4A106009E02C480068401E2A4A106032
:105090009DF800004006000E00909DF8000000F012
:1050A00080008028EFD024480068C0F10700042861
:1050B00001D1012000E0002050B900BF502080F352
:1050C0001188BFF34F8FBFF36F8F00BF00BFFEE7A4
:1050D000194800680002184A10601046008800F461
:1050E000E0601060124A019810700F48203000688C
:1050F00040F470000C49203108600846006840F018
:1051000070400860FFF7EEFD00200C490860FBF7D7
:1051100069F80B48006840F0404009490860FBF717
:105120004DF800201CBD000000ED00E071C20F41F1
:1051300000E400E08C0000209000002088000020A7
:1051400034EF00E02DE9F84305460E4690460DB1D8
:10515000012000E0002050B900BF502080F31188EA
:10516000BFF34F8FBFF36F8F00BF00BFFEE70EB9D5
:10517000002701E005FB06F707F14800FFF732FBC7
:10518000044644B104F1480943464A46314628469C
:105190000094FFF7BDF92046BDE8F88370B50546D9
:1051A0000E462C4654B900BF502080F31188BFF33F
:1051B0004F8FBFF36F8F00BF00BFFEE7FFF700FD0B
:1051C000D4E90F12206801FB020060600020A06398
:1051D0002068A060E06B401E226C216800FB02107A
:1051E000E060FF2084F8440084F845009EB92069FF
:1051F00008B9012000E00020A8B904F1100000F077
:1052000039FB80B14FF0805009490860BFF34F8FE0
:10521000BFF36F8F07E004F11000FFF79AFC04F171
:105220002400FFF796FCFFF7F5FC012070BD00009D
:1052300004ED00E02DE9FF4383B0064688461D4695
:105240004FF00009344654B900BF502080F3118854
:10525000BFF34F8FBFF36F8F00BF00BFFEE7B8F102
:10526000000F01D1206C08B9012000E0002050B9E6
:1052700000BF502080F31188BFF34F8FBFF36F8FB3
:1052800000BF00BFFEE7022D02D1E06B012801D173
:10529000012000E0002050B900BF502080F31188A9
:1052A000BFF34F8FBFF36F8F00BF00BFFEE700F06B
:1052B000C3F908B9059808B9012000E0002050B9E9
:1052C00000BF502080F31188BFF34F8FBFF36F8F63
:1052D00000BF00BFFEE700BFFFF772FCA06BE16BF1
:1052E000884201D3022D28D12A4641462046FFF7A5
:1052F00076F80746606A08B9012000E0002068B926
:1053000004F1240000F0B6FA88B14FF08050324921
:105310000860BFF34F8FBFF36F8F08E03FB14FF0CE
:1053200080502D490860BFF34F8FBFF36F8FFFF799
:1053300071FC012007B0BDE8F083059818B9FFF7AC
:1053400069FC0020F6E7B9F1000F04D101A8FFF7CE
:1053500085FD4FF00109FFF75DFCFFF7F1FDFFF759
:105360002FFC94F94400401C10B9002084F844003C
:1053700094F94500401C10B9002084F84500FFF75F
:1053800049FC05A901A800F0DDF8F0B92046FFF7B7
:10539000A0F9A0B104F110000599FFF771FD2046B6
:1053A000FFF7E0F900F0B2FA002895D14FF08050F5
:1053B00009490860BFF34F8FBFF36F8F8CE720461A
:1053C000FFF7D0F900F0A2FA86E72046FFF7CAF906
:1053D00000F09CFA0020ADE704ED00E02DE9F74174
:1053E00083B005460E464FF000082C4654B900BF66
:1053F000502080F31188BFF34F8FBFF36F8F00BF32
:1054000000BFFEE70EB9206C08B9012000E00020C3
:1054100050B900BF502080F31188BFF34F8FBFF306
:105420006F8F00BF00BFFEE700F006F908B90598CE
:1054300008B9012000E0002050B900BF502080F3DF
:105440001188BFF34F8FBFF36F8F00BF00BFFEE720
:1054500000BFFFF7B5FBA76BF7B131462046FEF75B
:10546000A9FF781EA063206908B9012000E0002090
:1054700060B904F1100000F0FDF938B14FF0805030
:105480002F490860BFF34F8FBFF36F8FFFF7C2FB49
:10549000012006B0BDE8F081059818B9FFF7BAFB06
:1054A0000020F6E7B8F1000F04D101A8FFF7D6FC01
:1054B0004FF00108FFF7AEFBFFF742FDFFF780FB5F
:1054C00094F94400401C10B9002084F8440094F979
:1054D0004500401C10B9002084F84500FFF79AFBF6
:1054E00005A901A800F02EF8F0B92046FFF7E4F86E
:1054F000A0B104F124000599FFF7C2FC2046FFF794
:1055000031F900F003FA0028A3D14FF080500C4984
:105510000860BFF34F8FBFF36F8F9AE72046FFF706
:1055200021F900F0F3F994E72046FFF71BF900F0AA
:10553000EDF92046FFF7C0F800288AD00020A8E740
:1055400004ED00E070B505460C4655B900BF50208B
:1055500080F31188BFF34F8FBFF36F8F00BF00BF81
:10556000FEE754B900BF502080F31188BFF34F8F7E
:10557000BFF36F8F00BF00BFFEE7FFF721FB1248AC
:1055800002686868131A2068401C08B9002617E0F2
:105590000E4928680968884204D06868904201D89A
:1055A00001260DE02068984207D92068C01A2060C3
:1055B0002846FFF753FC002602E000202060012669
:1055C000FFF728FB304670BD480000205C0000203B
:1055D0002DE9FF4F85B0804689461746DDE912ABBD
:1055E000B800FFF7FFF8064656B15420FFF7FAF867
:1055F00004460CB1266304E03046FFF729FB00E0C7
:1056000000247CB10020CDE900ABCDE902403A4650
:1056100049464046089BFEF78EFF2046FEF74CFEAB
:10562000012501E04FF0FF35284609B000F000B831
:1056300030BCBDE8C08F00000549096809B90120E8
:1056400005E00449096809B9022000E0002070471C
:10565000500000206C0000200149086870470000DD
:10566000480000202DE9F0414FF000084448006850
:10567000002877D143480068451C4248056015BBA7
:1056800041480068006808B9012000E0002050B9D6
:1056900000BF502080F31188BFF34F8FBFF36F8F8F
:1056A00000BF00BFFEE73848076838480068364941
:1056B00008603648076036480068401C3449086076
:1056C000FFF716F800BF3348006885423CD300BF9F
:1056D0002D480068006808B9012000E0002020B1D2
:1056E0004FF0FF302B4908602DE027480068C06864
:1056F000C4686668B54202D22648066023E0201DD1
:10570000FFF7FEF9A06A18B104F11800FFF7F8F9E5
:1057100094F82C10012088401F49096808431E494D
:105720000860E16A01EB81011C4A02EB8100211D46
:10573000FFF739FA1A49E06A0968C96A8842C7D38B
:105740004FF00108C4E700BF15480068C06A00EBCD
:105750008000124951F82000012801D94FF00108BA
:1057600005E0FFE70F480068401C0E4908600E483E
:10577000006808B14FF001084046BDE8F081000024
:105780006C00002048000020380000203C00002071
:105790005C000020640000204C000020C8020020B3
:1057A00034000020540000205800002070B5054649
:1057B0002C460026002D55D02B480068844201D18C
:1057C000012000E0002050B900BF502080F3118874
:1057D000BFF34F8FBFF36F8F00BF00BFFEE7A06C1A
:1057E00050B900BF502080F31188BFF34F8FBFF333
:1057F0006F8F00BF00BFFEE7A06C401EA064616C0D
:10580000E06A88422ED0A06C60BB201DFFF778F9BB
:1058100078B9E06A00EB8000144951F8200040B9E3
:1058200094F82C10012088401149096881431048E0
:105830000160606CE062E06AC0F10700A06194F86A
:105840002C10012088400A4909680843084908606B
:10585000E16A01EB8101054A02EB8100211DFFF79E
:10586000A2F90126304670BD34000020C802002095
:105870004C00002070B50646F068C46854B900BFFB
:10588000502080F31188BFF34F8FBFF36F8F00BF9D
:1058900000BFFEE704F11800FFF732F91548006871
:1058A000A8B9201DFFF72CF994F82C10012088408E
:1058B00011490968084310490860E16A01EB810158
:1058C0000E4A02EB8100211DFFF76DF904E004F19F
:1058D00018010B48FFF767F90A49E06A0968C96AC5
:1058E000884204D9012501200749086000E000250D
:1058F000284670BD6C0000204C000020C80200202B
:105900007C030020340000205800002070B50024E3
:1059100000263648006850B900BF502080F3118837
:10592000BFF34F8FBFF36F8F00BF00BFFEE7FFF7DE
:1059300047F92E480068401E2C4908600846006858
:1059400000284FD12A48006800284BD024E029487D
:10595000C068C46804F11800FFF7D2F8201DFFF7F3
:10596000CFF894F82C100120884023490968084397
:1059700021490860E16A01EB8101204A02EB8100C4
:10598000211DFFF710F91E49E06A0968C96A8842BB
:1059900002D301201B4908601648006808B901209D
:1059A00000E000200028D2D00CB1FEF7A1FE16487E
:1059B000056865B100BFFFF755FE10B10120114920
:1059C00008606D1E002DF6D100200F4908600D48BB
:1059D000006838B1012630070C490860BFF34F8FCB
:1059E000BFF36F8FFFF716F9304670BD6C000020D3
:1059F000440000207C0300204C000020C80200204E
:105A000034000020580000205400002004ED00E085
:105A10006C5A00081D25000800000000000000006E
:105A200080000000000000000000000001020304EC
:105A3000060708090000000001020304A086010017
:105A4000400D0300801A060000350C0040420F0094
:105A500080841E0000093D0000127A000024F4003A
:105A600000366E010048E801006CDC026465666186
:105A7000756C745461736B0054686520656E6420A6
:105A80006F66207468652064617920697320686599
:105A900072652E2054696D6520746F20636C6F737E
:105AA000652075702073686F700D0A546F74616C97
:105AB000207469636B73203D2025640D0A0000008B
:105AC000546865206D6178696D756D2077616974C2
:105AD0002074696D6520666F722074656C6C6572E8
